{
  "_format": "hh-sol-artifact-1",
  "contractName": "CoffeeMarketplace",
  "sourceName": "contracts/CoffeeMarketplace.sol",
  "abi": [
    {
      "inputs": [],
      "stateMutability": "nonpayable",
      "type": "constructor"
    },
    {
      "inputs": [
        {
          "internalType": "address",
          "name": "sender",
          "type": "address"
        },
        {
          "internalType": "uint256",
          "name": "tokenId",
          "type": "uint256"
        },
        {
          "internalType": "address",
          "name": "owner",
          "type": "address"
        }
      ],
      "name": "ERC721IncorrectOwner",
      "type": "error"
    },
    {
      "inputs": [
        {
          "internalType": "address",
          "name": "operator",
          "type": "address"
        },
        {
          "internalType": "uint256",
          "name": "tokenId",
          "type": "uint256"
        }
      ],
      "name": "ERC721InsufficientApproval",
      "type": "error"
    },
    {
      "inputs": [
        {
          "internalType": "address",
          "name": "approver",
          "type": "address"
        }
      ],
      "name": "ERC721InvalidApprover",
      "type": "error"
    },
    {
      "inputs": [
        {
          "internalType": "address",
          "name": "operator",
          "type": "address"
        }
      ],
      "name": "ERC721InvalidOperator",
      "type": "error"
    },
    {
      "inputs": [
        {
          "internalType": "address",
          "name": "owner",
          "type": "address"
        }
      ],
      "name": "ERC721InvalidOwner",
      "type": "error"
    },
    {
      "inputs": [
        {
          "internalType": "address",
          "name": "receiver",
          "type": "address"
        }
      ],
      "name": "ERC721InvalidReceiver",
      "type": "error"
    },
    {
      "inputs": [
        {
          "internalType": "address",
          "name": "sender",
          "type": "address"
        }
      ],
      "name": "ERC721InvalidSender",
      "type": "error"
    },
    {
      "inputs": [
        {
          "internalType": "uint256",
          "name": "tokenId",
          "type": "uint256"
        }
      ],
      "name": "ERC721NonexistentToken",
      "type": "error"
    },
    {
      "inputs": [
        {
          "internalType": "address",
          "name": "owner",
          "type": "address"
        }
      ],
      "name": "OwnableInvalidOwner",
      "type": "error"
    },
    {
      "inputs": [
        {
          "internalType": "address",
          "name": "account",
          "type": "address"
        }
      ],
      "name": "OwnableUnauthorizedAccount",
      "type": "error"
    },
    {
      "anonymous": false,
      "inputs": [
        {
          "indexed": true,
          "internalType": "address",
          "name": "owner",
          "type": "address"
        },
        {
          "indexed": true,
          "internalType": "address",
          "name": "approved",
          "type": "address"
        },
        {
          "indexed": true,
          "internalType": "uint256",
          "name": "tokenId",
          "type": "uint256"
        }
      ],
      "name": "Approval",
      "type": "event"
    },
    {
      "anonymous": false,
      "inputs": [
        {
          "indexed": true,
          "internalType": "address",
          "name": "owner",
          "type": "address"
        },
        {
          "indexed": true,
          "internalType": "address",
          "name": "operator",
          "type": "address"
        },
        {
          "indexed": false,
          "internalType": "bool",
          "name": "approved",
          "type": "bool"
        }
      ],
      "name": "ApprovalForAll",
      "type": "event"
    },
    {
      "anonymous": false,
      "inputs": [
        {
          "indexed": false,
          "internalType": "uint256",
          "name": "_fromTokenId",
          "type": "uint256"
        },
        {
          "indexed": false,
          "internalType": "uint256",
          "name": "_toTokenId",
          "type": "uint256"
        }
      ],
      "name": "BatchMetadataUpdate",
      "type": "event"
    },
    {
      "anonymous": false,
      "inputs": [
        {
          "indexed": false,
          "internalType": "uint256",
          "name": "productId",
          "type": "uint256"
        },
        {
          "indexed": true,
          "internalType": "address",
          "name": "roaster",
          "type": "address"
        },
        {
          "indexed": false,
          "internalType": "string",
          "name": "name",
          "type": "string"
        },
        {
          "indexed": false,
          "internalType": "uint256",
          "name": "price",
          "type": "uint256"
        },
        {
          "indexed": false,
          "internalType": "uint256",
          "name": "quantity",
          "type": "uint256"
        }
      ],
      "name": "ListingAdded",
      "type": "event"
    },
    {
      "anonymous": false,
      "inputs": [
        {
          "indexed": false,
          "internalType": "uint256",
          "name": "_tokenId",
          "type": "uint256"
        }
      ],
      "name": "MetadataUpdate",
      "type": "event"
    },
    {
      "anonymous": false,
      "inputs": [
        {
          "indexed": true,
          "internalType": "uint256",
          "name": "tokenId",
          "type": "uint256"
        },
        {
          "indexed": true,
          "internalType": "address",
          "name": "owner",
          "type": "address"
        },
        {
          "indexed": false,
          "internalType": "string",
          "name": "tokenURI",
          "type": "string"
        }
      ],
      "name": "NFTMinted",
      "type": "event"
    },
    {
      "anonymous": false,
      "inputs": [
        {
          "indexed": true,
          "internalType": "address",
          "name": "previousOwner",
          "type": "address"
        },
        {
          "indexed": true,
          "internalType": "address",
          "name": "newOwner",
          "type": "address"
        }
      ],
      "name": "OwnershipTransferred",
      "type": "event"
    },
    {
      "anonymous": false,
      "inputs": [
        {
          "indexed": false,
          "internalType": "uint256",
          "name": "productId",
          "type": "uint256"
        },
        {
          "indexed": true,
          "internalType": "address",
          "name": "roaster",
          "type": "address"
        },
        {
          "indexed": false,
          "internalType": "string",
          "name": "name",
          "type": "string"
        },
        {
          "indexed": false,
          "internalType": "uint256",
          "name": "price",
          "type": "uint256"
        },
        {
          "indexed": false,
          "internalType": "uint256",
          "name": "quantity",
          "type": "uint256"
        }
      ],
      "name": "ProductAdded",
      "type": "event"
    },
    {
      "anonymous": false,
      "inputs": [
        {
          "indexed": true,
          "internalType": "address",
          "name": "from",
          "type": "address"
        },
        {
          "indexed": true,
          "internalType": "address",
          "name": "to",
          "type": "address"
        },
        {
          "indexed": true,
          "internalType": "uint256",
          "name": "tokenId",
          "type": "uint256"
        }
      ],
      "name": "Transfer",
      "type": "event"
    },
    {
      "inputs": [
        {
          "internalType": "string",
          "name": "_name",
          "type": "string"
        },
        {
          "internalType": "string",
          "name": "_description",
          "type": "string"
        },
        {
          "internalType": "string",
          "name": "_ipfsHash",
          "type": "string"
        },
        {
          "internalType": "uint256",
          "name": "_price",
          "type": "uint256"
        },
        {
          "internalType": "uint256",
          "name": "_quantity",
          "type": "uint256"
        }
      ],
      "name": "addRoasterListing",
      "outputs": [],
      "stateMutability": "nonpayable",
      "type": "function"
    },
    {
      "inputs": [
        {
          "internalType": "address",
          "name": "to",
          "type": "address"
        },
        {
          "internalType": "uint256",
          "name": "tokenId",
          "type": "uint256"
        }
      ],
      "name": "approve",
      "outputs": [],
      "stateMutability": "nonpayable",
      "type": "function"
    },
    {
      "inputs": [
        {
          "internalType": "address",
          "name": "owner",
          "type": "address"
        }
      ],
      "name": "balanceOf",
      "outputs": [
        {
          "internalType": "uint256",
          "name": "",
          "type": "uint256"
        }
      ],
      "stateMutability": "view",
      "type": "function"
    },
    {
      "inputs": [
        {
          "internalType": "uint256",
          "name": "tokenId",
          "type": "uint256"
        }
      ],
      "name": "getApproved",
      "outputs": [
        {
          "internalType": "address",
          "name": "",
          "type": "address"
        }
      ],
      "stateMutability": "view",
      "type": "function"
    },
    {
      "inputs": [
        {
          "internalType": "uint256",
          "name": "_productId",
          "type": "uint256"
        }
      ],
      "name": "getListing",
      "outputs": [
        {
          "internalType": "string",
          "name": "name",
          "type": "string"
        },
        {
          "internalType": "string",
          "name": "description",
          "type": "string"
        },
        {
          "internalType": "string",
          "name": "ipfsHash",
          "type": "string"
        },
        {
          "internalType": "uint256",
          "name": "price",
          "type": "uint256"
        },
        {
          "internalType": "uint256",
          "name": "quantity",
          "type": "uint256"
        },
        {
          "internalType": "uint256[]",
          "name": "nftIds",
          "type": "uint256[]"
        },
        {
          "internalType": "bool",
          "name": "available",
          "type": "bool"
        }
      ],
      "stateMutability": "view",
      "type": "function"
    },
    {
      "inputs": [
        {
          "internalType": "address",
          "name": "owner",
          "type": "address"
        },
        {
          "internalType": "address",
          "name": "operator",
          "type": "address"
        }
      ],
      "name": "isApprovedForAll",
      "outputs": [
        {
          "internalType": "bool",
          "name": "",
          "type": "bool"
        }
      ],
      "stateMutability": "view",
      "type": "function"
    },
    {
      "inputs": [],
      "name": "name",
      "outputs": [
        {
          "internalType": "string",
          "name": "",
          "type": "string"
        }
      ],
      "stateMutability": "view",
      "type": "function"
    },
    {
      "inputs": [
        {
          "internalType": "address",
          "name": "",
          "type": "address"
        },
        {
          "internalType": "address",
          "name": "",
          "type": "address"
        },
        {
          "internalType": "uint256",
          "name": "",
          "type": "uint256"
        },
        {
          "internalType": "bytes",
          "name": "",
          "type": "bytes"
        }
      ],
      "name": "onERC721Received",
      "outputs": [
        {
          "internalType": "bytes4",
          "name": "",
          "type": "bytes4"
        }
      ],
      "stateMutability": "nonpayable",
      "type": "function"
    },
    {
      "inputs": [],
      "name": "owner",
      "outputs": [
        {
          "internalType": "address",
          "name": "",
          "type": "address"
        }
      ],
      "stateMutability": "view",
      "type": "function"
    },
    {
      "inputs": [
        {
          "internalType": "uint256",
          "name": "tokenId",
          "type": "uint256"
        }
      ],
      "name": "ownerOf",
      "outputs": [
        {
          "internalType": "address",
          "name": "",
          "type": "address"
        }
      ],
      "stateMutability": "view",
      "type": "function"
    },
    {
      "inputs": [],
      "name": "productCounter",
      "outputs": [
        {
          "internalType": "uint256",
          "name": "",
          "type": "uint256"
        }
      ],
      "stateMutability": "view",
      "type": "function"
    },
    {
      "inputs": [
        {
          "internalType": "uint256",
          "name": "",
          "type": "uint256"
        }
      ],
      "name": "products",
      "outputs": [
        {
          "internalType": "uint256",
          "name": "productId",
          "type": "uint256"
        },
        {
          "internalType": "address",
          "name": "roaster",
          "type": "address"
        },
        {
          "internalType": "string",
          "name": "name",
          "type": "string"
        },
        {
          "internalType": "string",
          "name": "description",
          "type": "string"
        },
        {
          "internalType": "string",
          "name": "ipfsHash",
          "type": "string"
        },
        {
          "internalType": "uint256",
          "name": "price",
          "type": "uint256"
        },
        {
          "internalType": "uint256",
          "name": "quantity",
          "type": "uint256"
        },
        {
          "internalType": "bool",
          "name": "available",
          "type": "bool"
        }
      ],
      "stateMutability": "view",
      "type": "function"
    },
    {
      "inputs": [],
      "name": "renounceOwnership",
      "outputs": [],
      "stateMutability": "nonpayable",
      "type": "function"
    },
    {
      "inputs": [
        {
          "internalType": "address",
          "name": "from",
          "type": "address"
        },
        {
          "internalType": "address",
          "name": "to",
          "type": "address"
        },
        {
          "internalType": "uint256",
          "name": "tokenId",
          "type": "uint256"
        }
      ],
      "name": "safeTransferFrom",
      "outputs": [],
      "stateMutability": "nonpayable",
      "type": "function"
    },
    {
      "inputs": [
        {
          "internalType": "address",
          "name": "from",
          "type": "address"
        },
        {
          "internalType": "address",
          "name": "to",
          "type": "address"
        },
        {
          "internalType": "uint256",
          "name": "tokenId",
          "type": "uint256"
        },
        {
          "internalType": "bytes",
          "name": "data",
          "type": "bytes"
        }
      ],
      "name": "safeTransferFrom",
      "outputs": [],
      "stateMutability": "nonpayable",
      "type": "function"
    },
    {
      "inputs": [
        {
          "internalType": "address",
          "name": "operator",
          "type": "address"
        },
        {
          "internalType": "bool",
          "name": "approved",
          "type": "bool"
        }
      ],
      "name": "setApprovalForAll",
      "outputs": [],
      "stateMutability": "nonpayable",
      "type": "function"
    },
    {
      "inputs": [
        {
          "internalType": "bytes4",
          "name": "interfaceId",
          "type": "bytes4"
        }
      ],
      "name": "supportsInterface",
      "outputs": [
        {
          "internalType": "bool",
          "name": "",
          "type": "bool"
        }
      ],
      "stateMutability": "view",
      "type": "function"
    },
    {
      "inputs": [],
      "name": "symbol",
      "outputs": [
        {
          "internalType": "string",
          "name": "",
          "type": "string"
        }
      ],
      "stateMutability": "view",
      "type": "function"
    },
    {
      "inputs": [],
      "name": "tokenCounter",
      "outputs": [
        {
          "internalType": "uint256",
          "name": "",
          "type": "uint256"
        }
      ],
      "stateMutability": "view",
      "type": "function"
    },
    {
      "inputs": [
        {
          "internalType": "uint256",
          "name": "tokenId",
          "type": "uint256"
        }
      ],
      "name": "tokenURI",
      "outputs": [
        {
          "internalType": "string",
          "name": "",
          "type": "string"
        }
      ],
      "stateMutability": "view",
      "type": "function"
    },
    {
      "inputs": [
        {
          "internalType": "address",
          "name": "from",
          "type": "address"
        },
        {
          "internalType": "address",
          "name": "to",
          "type": "address"
        },
        {
          "internalType": "uint256",
          "name": "tokenId",
          "type": "uint256"
        }
      ],
      "name": "transferFrom",
      "outputs": [],
      "stateMutability": "nonpayable",
      "type": "function"
    },
    {
      "inputs": [
        {
          "internalType": "address",
          "name": "newOwner",
          "type": "address"
        }
      ],
      "name": "transferOwnership",
      "outputs": [],
      "stateMutability": "nonpayable",
      "type": "function"
    }
  ],
  "bytecode": "0x608060405260006008556000600a5534801561001a57600080fd5b50336040518060400160405280600981526020017f436f666665654e465400000000000000000000000000000000000000000000008152506040518060400160405280600681526020017f434f46464545000000000000000000000000000000000000000000000000000081525081600090816100979190610447565b5080600190816100a79190610447565b505050600073ffffffffffffffffffffffffffffffffffffffff168173ffffffffffffffffffffffffffffffffffffffff160361011c5760006040517f1e4fbdf7000000000000000000000000000000000000000000000000000000008152600401610113919061055a565b60405180910390fd5b61012b8161013160201b60201c565b50610575565b6000600760009054906101000a900473ffffffffffffffffffffffffffffffffffffffff16905081600760006101000a81548173ffffffffffffffffffffffffffffffffffffffff021916908373ffffffffffffffffffffffffffffffffffffffff1602179055508173ffffffffffffffffffffffffffffffffffffffff168173ffffffffffffffffffffffffffffffffffffffff167f8be0079c531659141344cd1fd0a4f28419497f9722a3daafe3b4186f6b6457e060405160405180910390a35050565b600081519050919050565b7f4e487b7100000000000000000000000000000000000000000000000000000000600052604160045260246000fd5b7f4e487b7100000000000000000000000000000000000000000000000000000000600052602260045260246000fd5b6000600282049050600182168061027857607f821691505b60208210810361028b5761028a610231565b5b50919050565b60008190508160005260206000209050919050565b60006020601f8301049050919050565b600082821b905092915050565b6000600883026102f37fffffffffffffffffffffffffffffffffffffffffffffffffffffffffffffffff826102b6565b6102fd86836102b6565b95508019841693508086168417925050509392505050565b6000819050919050565b6000819050919050565b600061034461033f61033a84610315565b61031f565b610315565b9050919050565b6000819050919050565b61035e83610329565b61037261036a8261034b565b8484546102c3565b825550505050565b600090565b61038761037a565b610392818484610355565b505050565b5b818110156103b6576103ab60008261037f565b600181019050610398565b5050565b601f8211156103fb576103cc81610291565b6103d5846102a6565b810160208510156103e4578190505b6103f86103f0856102a6565b830182610397565b50505b505050565b600082821c905092915050565b600061041e60001984600802610400565b1980831691505092915050565b6000610437838361040d565b9150826002028217905092915050565b610450826101f7565b67ffffffffffffffff81111561046957610468610202565b5b6104738254610260565b61047e8282856103ba565b600060209050601f8311600181146104b1576000841561049f578287015190505b6104a9858261042b565b865550610511565b601f1984166104bf86610291565b60005b828110156104e7578489015182556001820191506020850194506020810190506104c2565b868310156105045784890151610500601f89168261040d565b8355505b6001600288020188555050505b505050505050565b600073ffffffffffffffffffffffffffffffffffffffff82169050919050565b600061054482610519565b9050919050565b61055481610539565b82525050565b600060208201905061056f600083018461054b565b92915050565b6135d7806105846000396000f3fe608060405234801561001057600080fd5b50600436106101425760003560e01c806370a08231116100b8578063a22cb4651161007c578063a22cb46514610396578063b88d4fde146103b2578063c87b56dd146103ce578063d082e381146103fe578063e985e9c51461041c578063f2fde38b1461044c57610142565b806370a08231146102e9578063715018a6146103195780637acc0b20146103235780638da5cb5b1461035a57806395d89b411461037857610142565b8063150b7a021161010a578063150b7a02146102175780631f16653b1461024757806323b872dd1461026557806342842e0e14610281578063458080431461029d5780636352211e146102b957610142565b806301ffc9a71461014757806306fdde0314610177578063081812fc14610195578063095ea7b3146101c5578063107a274a146101e1575b600080fd5b610161600480360381019061015c91906125d1565b610468565b60405161016e9190612619565b60405180910390f35b61017f6104c9565b60405161018c91906126c4565b60405180910390f35b6101af60048036038101906101aa919061271c565b61055b565b6040516101bc919061278a565b60405180910390f35b6101df60048036038101906101da91906127d1565b610577565b005b6101fb60048036038101906101f6919061271c565b61058d565b60405161020e97969594939291906128de565b60405180910390f35b610231600480360381019061022c9190612a9e565b6108dd565b60405161023e9190612b30565b60405180910390f35b61024f6108f1565b60405161025c9190612b4b565b60405180910390f35b61027f600480360381019061027a9190612b66565b6108f7565b005b61029b60048036038101906102969190612b66565b6109f9565b005b6102b760048036038101906102b29190612c5a565b610a19565b005b6102d360048036038101906102ce919061271c565b610c16565b6040516102e0919061278a565b60405180910390f35b61030360048036038101906102fe9190612d29565b610c28565b6040516103109190612b4b565b60405180910390f35b610321610ce2565b005b61033d6004803603810190610338919061271c565b610cf6565b604051610351989796959493929190612d56565b60405180910390f35b610362610f03565b60405161036f919061278a565b60405180910390f35b610380610f2d565b60405161038d91906126c4565b60405180910390f35b6103b060048036038101906103ab9190612e15565b610fbf565b005b6103cc60048036038101906103c79190612a9e565b610fd5565b005b6103e860048036038101906103e3919061271c565b610ffa565b6040516103f591906126c4565b60405180910390f35b61040661110d565b6040516104139190612b4b565b60405180910390f35b61043660048036038101906104319190612e55565b611113565b6040516104439190612619565b60405180910390f35b61046660048036038101906104619190612d29565b6111a7565b005b6000634906490660e01b7bffffffffffffffffffffffffffffffffffffffffffffffffffffffff1916827bffffffffffffffffffffffffffffffffffffffffffffffffffffffff191614806104c257506104c18261122d565b5b9050919050565b6060600080546104d890612ec4565b80601f016020809104026020016040519081016040528092919081815260200182805461050490612ec4565b80156105515780601f1061052657610100808354040283529160200191610551565b820191906000526020600020905b81548152906001019060200180831161053457829003601f168201915b5050505050905090565b60006105668261130f565b5061057082611397565b9050919050565b61058982826105846113d4565b6113dc565b5050565b60608060606000806060600080600960008a815260200190815260200160002060405180610120016040529081600082015481526020016001820160009054906101000a900473ffffffffffffffffffffffffffffffffffffffff1673ffffffffffffffffffffffffffffffffffffffff1673ffffffffffffffffffffffffffffffffffffffff16815260200160028201805461062990612ec4565b80601f016020809104026020016040519081016040528092919081815260200182805461065590612ec4565b80156106a25780601f10610677576101008083540402835291602001916106a2565b820191906000526020600020905b81548152906001019060200180831161068557829003601f168201915b505050505081526020016003820180546106bb90612ec4565b80601f01602080910402602001604051908101604052809291908181526020018280546106e790612ec4565b80156107345780601f1061070957610100808354040283529160200191610734565b820191906000526020600020905b81548152906001019060200180831161071757829003601f168201915b5050505050815260200160048201805461074d90612ec4565b80601f016020809104026020016040519081016040528092919081815260200182805461077990612ec4565b80156107c65780601f1061079b576101008083540402835291602001916107c6565b820191906000526020600020905b8154815290600101906020018083116107a957829003601f168201915b5050505050815260200160058201548152602001600682015481526020016007820180548060200260200160405190810160405280929190818152602001828054801561083257602002820191906000526020600020905b81548152602001906001019080831161081e575b505050505081526020016008820160009054906101000a900460ff1615151515815250509050600081600001511161089f576040517f08c379a000000000000000000000000000000000000000000000000000000000815260040161089690612f41565b60405180910390fd5b8060400151816060015182608001518360a001518460c001518560e00151866101000151975097509750975097509750975050919395979092949650565b600063150b7a0260e01b9050949350505050565b60085481565b600073ffffffffffffffffffffffffffffffffffffffff168273ffffffffffffffffffffffffffffffffffffffff16036109695760006040517f64a0ae92000000000000000000000000000000000000000000000000000000008152600401610960919061278a565b60405180910390fd5b600061097d83836109786113d4565b6113ee565b90508373ffffffffffffffffffffffffffffffffffffffff168173ffffffffffffffffffffffffffffffffffffffff16146109f3578382826040517f64283d7b0000000000000000000000000000000000000000000000000000000081526004016109ea93929190612f61565b60405180910390fd5b50505050565b610a1483838360405180602001604052806000815250610fd5565b505050565b60008211610a5c576040517f08c379a0000000000000000000000000000000000000000000000000000000008152600401610a5390612fe4565b60405180910390fd5b60008111610a9f576040517f08c379a0000000000000000000000000000000000000000000000000000000008152600401610a9690613076565b60405180910390fd5b60008167ffffffffffffffff811115610abb57610aba612973565b5b604051908082528060200260200182016040528015610ae95781602001602082028036833780820191505090505b50905060005b82811015610ba757600a6000815480929190610b0a906130c5565b91905055506000600a549050610b203082611608565b610b2a8187611626565b80838381518110610b3e57610b3d61310d565b5b6020026020010181815250503073ffffffffffffffffffffffffffffffffffffffff16817f06becd955c918828f6e985541acbf49cc842c9e9bd569fffc7698e721ef1357588604051610b9191906126c4565b60405180910390a3508080600101915050610aef565b50610bb733878787878787611682565b503373ffffffffffffffffffffffffffffffffffffffff167f2bdd1034b17e6ebad4865acc810494d30c833727fcbd3aab4021852260ee8788600854888686604051610c06949392919061313c565b60405180910390a2505050505050565b6000610c218261130f565b9050919050565b60008073ffffffffffffffffffffffffffffffffffffffff168273ffffffffffffffffffffffffffffffffffffffff1603610c9b5760006040517f89c62b64000000000000000000000000000000000000000000000000000000008152600401610c92919061278a565b60405180910390fd5b600360008373ffffffffffffffffffffffffffffffffffffffff1673ffffffffffffffffffffffffffffffffffffffff168152602001908152602001600020549050919050565b610cea6118df565b610cf46000611966565b565b60096020528060005260406000206000915090508060000154908060010160009054906101000a900473ffffffffffffffffffffffffffffffffffffffff1690806002018054610d4590612ec4565b80601f0160208091040260200160405190810160405280929190818152602001828054610d7190612ec4565b8015610dbe5780601f10610d9357610100808354040283529160200191610dbe565b820191906000526020600020905b815481529060010190602001808311610da157829003601f168201915b505050505090806003018054610dd390612ec4565b80601f0160208091040260200160405190810160405280929190818152602001828054610dff90612ec4565b8015610e4c5780601f10610e2157610100808354040283529160200191610e4c565b820191906000526020600020905b815481529060010190602001808311610e2f57829003601f168201915b505050505090806004018054610e6190612ec4565b80601f0160208091040260200160405190810160405280929190818152602001828054610e8d90612ec4565b8015610eda5780601f10610eaf57610100808354040283529160200191610eda565b820191906000526020600020905b815481529060010190602001808311610ebd57829003601f168201915b5050505050908060050154908060060154908060080160009054906101000a900460ff16905088565b6000600760009054906101000a900473ffffffffffffffffffffffffffffffffffffffff16905090565b606060018054610f3c90612ec4565b80601f0160208091040260200160405190810160405280929190818152602001828054610f6890612ec4565b8015610fb55780601f10610f8a57610100808354040283529160200191610fb5565b820191906000526020600020905b815481529060010190602001808311610f9857829003601f168201915b5050505050905090565b610fd1610fca6113d4565b8383611a2c565b5050565b610fe08484846108f7565b610ff4610feb6113d4565b85858585611b9b565b50505050565b60606110058261130f565b50600060066000848152602001908152602001600020805461102690612ec4565b80601f016020809104026020016040519081016040528092919081815260200182805461105290612ec4565b801561109f5780601f106110745761010080835404028352916020019161109f565b820191906000526020600020905b81548152906001019060200180831161108257829003601f168201915b5050505050905060006110b0611d4c565b905060008151036110c5578192505050611108565b6000825111156110fa5780826040516020016110e29291906131c4565b60405160208183030381529060405292505050611108565b61110384611d63565b925050505b919050565b600a5481565b6000600560008473ffffffffffffffffffffffffffffffffffffffff1673ffffffffffffffffffffffffffffffffffffffff16815260200190815260200160002060008373ffffffffffffffffffffffffffffffffffffffff1673ffffffffffffffffffffffffffffffffffffffff16815260200190815260200160002060009054906101000a900460ff16905092915050565b6111af6118df565b600073ffffffffffffffffffffffffffffffffffffffff168173ffffffffffffffffffffffffffffffffffffffff16036112215760006040517f1e4fbdf7000000000000000000000000000000000000000000000000000000008152600401611218919061278a565b60405180910390fd5b61122a81611966565b50565b60007f80ac58cd000000000000000000000000000000000000000000000000000000007bffffffffffffffffffffffffffffffffffffffffffffffffffffffff1916827bffffffffffffffffffffffffffffffffffffffffffffffffffffffff191614806112f857507f5b5e139f000000000000000000000000000000000000000000000000000000007bffffffffffffffffffffffffffffffffffffffffffffffffffffffff1916827bffffffffffffffffffffffffffffffffffffffffffffffffffffffff1916145b80611308575061130782611dcc565b5b9050919050565b60008061131b83611e36565b9050600073ffffffffffffffffffffffffffffffffffffffff168173ffffffffffffffffffffffffffffffffffffffff160361138e57826040517f7e2732890000000000000000000000000000000000000000000000000000000081526004016113859190612b4b565b60405180910390fd5b80915050919050565b60006004600083815260200190815260200160002060009054906101000a900473ffffffffffffffffffffffffffffffffffffffff169050919050565b600033905090565b6113e98383836001611e73565b505050565b6000806113fa84611e36565b9050600073ffffffffffffffffffffffffffffffffffffffff168373ffffffffffffffffffffffffffffffffffffffff161461143c5761143b818486612038565b5b600073ffffffffffffffffffffffffffffffffffffffff168173ffffffffffffffffffffffffffffffffffffffff16146114cd5761147e600085600080611e73565b6001600360008373ffffffffffffffffffffffffffffffffffffffff1673ffffffffffffffffffffffffffffffffffffffff168152602001908152602001600020600082825403925050819055505b600073ffffffffffffffffffffffffffffffffffffffff168573ffffffffffffffffffffffffffffffffffffffff1614611550576001600360008773ffffffffffffffffffffffffffffffffffffffff1673ffffffffffffffffffffffffffffffffffffffff168152602001908152602001600020600082825401925050819055505b846002600086815260200190815260200160002060006101000a81548173ffffffffffffffffffffffffffffffffffffffff021916908373ffffffffffffffffffffffffffffffffffffffff160217905550838573ffffffffffffffffffffffffffffffffffffffff168273ffffffffffffffffffffffffffffffffffffffff167fddf252ad1be2c89b69c2b068fc378daa952ba7f163c4a11628f55a4df523b3ef60405160405180910390a4809150509392505050565b6116228282604051806020016040528060008152506120fc565b5050565b806006600084815260200190815260200160002090816116469190613394565b507ff8e1a15aba9398e019f0b49df1a4fde98ee17ae345cb5f6b5e2c27f5033e8ce7826040516116769190612b4b565b60405180910390a15050565b60008084116116c6576040517f08c379a00000000000000000000000000000000000000000000000000000000081526004016116bd90612fe4565b60405180910390fd5b60008311611709576040517f08c379a000000000000000000000000000000000000000000000000000000000815260040161170090613076565b60405180910390fd5b6008600081548092919061171c906130c5565b919050555060405180610120016040528060085481526020018973ffffffffffffffffffffffffffffffffffffffff168152602001888152602001878152602001868152602001858152602001848152602001838152602001600115158152506009600060085481526020019081526020016000206000820151816000015560208201518160010160006101000a81548173ffffffffffffffffffffffffffffffffffffffff021916908373ffffffffffffffffffffffffffffffffffffffff16021790555060408201518160020190816117f79190613394565b50606082015181600301908161180d9190613394565b5060808201518160040190816118239190613394565b5060a0820151816005015560c0820151816006015560e08201518160070190805190602001906118549291906124fb565b506101008201518160080160006101000a81548160ff0219169083151502179055509050508773ffffffffffffffffffffffffffffffffffffffff167f9d19a1275b5cd25f1a18c08dc005b2ef4e5c26bc01e1af7dea4f6dc87bc39b5d6008548987876040516118c7949392919061313c565b60405180910390a26008549050979650505050505050565b6118e76113d4565b73ffffffffffffffffffffffffffffffffffffffff16611905610f03565b73ffffffffffffffffffffffffffffffffffffffff1614611964576119286113d4565b6040517f118cdaa700000000000000000000000000000000000000000000000000000000815260040161195b919061278a565b60405180910390fd5b565b6000600760009054906101000a900473ffffffffffffffffffffffffffffffffffffffff16905081600760006101000a81548173ffffffffffffffffffffffffffffffffffffffff021916908373ffffffffffffffffffffffffffffffffffffffff1602179055508173ffffffffffffffffffffffffffffffffffffffff168173ffffffffffffffffffffffffffffffffffffffff167f8be0079c531659141344cd1fd0a4f28419497f9722a3daafe3b4186f6b6457e060405160405180910390a35050565b600073ffffffffffffffffffffffffffffffffffffffff168273ffffffffffffffffffffffffffffffffffffffff1603611a9d57816040517f5b08ba18000000000000000000000000000000000000000000000000000000008152600401611a94919061278a565b60405180910390fd5b80600560008573ffffffffffffffffffffffffffffffffffffffff1673ffffffffffffffffffffffffffffffffffffffff16815260200190815260200160002060008473ffffffffffffffffffffffffffffffffffffffff1673ffffffffffffffffffffffffffffffffffffffff16815260200190815260200160002060006101000a81548160ff0219169083151502179055508173ffffffffffffffffffffffffffffffffffffffff168373ffffffffffffffffffffffffffffffffffffffff167f17307eab39ab6107e8899845ad3d59bd9653f200f220920489ca2b5937696c3183604051611b8e9190612619565b60405180910390a3505050565b60008373ffffffffffffffffffffffffffffffffffffffff163b1115611d45578273ffffffffffffffffffffffffffffffffffffffff1663150b7a02868685856040518563ffffffff1660e01b8152600401611bfa94939291906134bb565b6020604051808303816000875af1925050508015611c3657506040513d601f19601f82011682018060405250810190611c33919061351c565b60015b611cba573d8060008114611c66576040519150601f19603f3d011682016040523d82523d6000602084013e611c6b565b606091505b506000815103611cb257836040517f64a0ae92000000000000000000000000000000000000000000000000000000008152600401611ca9919061278a565b60405180910390fd5b805181602001fd5b63150b7a0260e01b7bffffffffffffffffffffffffffffffffffffffffffffffffffffffff1916817bffffffffffffffffffffffffffffffffffffffffffffffffffffffff191614611d4357836040517f64a0ae92000000000000000000000000000000000000000000000000000000008152600401611d3a919061278a565b60405180910390fd5b505b5050505050565b606060405180602001604052806000815250905090565b6060611d6e8261130f565b506000611d79611d4c565b90506000815111611d995760405180602001604052806000815250611dc4565b80611da384612120565b604051602001611db49291906131c4565b6040516020818303038152906040525b915050919050565b60007f01ffc9a7000000000000000000000000000000000000000000000000000000007bffffffffffffffffffffffffffffffffffffffffffffffffffffffff1916827bffffffffffffffffffffffffffffffffffffffffffffffffffffffff1916149050919050565b60006002600083815260200190815260200160002060009054906101000a900473ffffffffffffffffffffffffffffffffffffffff169050919050565b8080611eac5750600073ffffffffffffffffffffffffffffffffffffffff168273ffffffffffffffffffffffffffffffffffffffff1614155b15611fe0576000611ebc8461130f565b9050600073ffffffffffffffffffffffffffffffffffffffff168373ffffffffffffffffffffffffffffffffffffffff1614158015611f2757508273ffffffffffffffffffffffffffffffffffffffff168173ffffffffffffffffffffffffffffffffffffffff1614155b8015611f3a5750611f388184611113565b155b15611f7c57826040517fa9fbf51f000000000000000000000000000000000000000000000000000000008152600401611f73919061278a565b60405180910390fd5b8115611fde57838573ffffffffffffffffffffffffffffffffffffffff168273ffffffffffffffffffffffffffffffffffffffff167f8c5be1e5ebec7d5bd14f71427d1e84f3dd0314c0f7b2291e5b200ac8c7c3b92560405160405180910390a45b505b836004600085815260200190815260200160002060006101000a81548173ffffffffffffffffffffffffffffffffffffffff021916908373ffffffffffffffffffffffffffffffffffffffff16021790555050505050565b6120438383836121ee565b6120f757600073ffffffffffffffffffffffffffffffffffffffff168373ffffffffffffffffffffffffffffffffffffffff16036120b857806040517f7e2732890000000000000000000000000000000000000000000000000000000081526004016120af9190612b4b565b60405180910390fd5b81816040517f177e802f0000000000000000000000000000000000000000000000000000000081526004016120ee929190613549565b60405180910390fd5b505050565b61210683836122af565b61211b6121116113d4565b6000858585611b9b565b505050565b60606000600161212f846123a8565b01905060008167ffffffffffffffff81111561214e5761214d612973565b5b6040519080825280601f01601f1916602001820160405280156121805781602001600182028036833780820191505090505b509050600082602001820190505b6001156121e3578080600190039150507f3031323334353637383961626364656600000000000000000000000000000000600a86061a8153600a85816121d7576121d6613572565b5b0494506000850361218e575b819350505050919050565b60008073ffffffffffffffffffffffffffffffffffffffff168373ffffffffffffffffffffffffffffffffffffffff16141580156122a657508273ffffffffffffffffffffffffffffffffffffffff168473ffffffffffffffffffffffffffffffffffffffff16148061226757506122668484611113565b5b806122a557508273ffffffffffffffffffffffffffffffffffffffff1661228d83611397565b73ffffffffffffffffffffffffffffffffffffffff16145b5b90509392505050565b600073ffffffffffffffffffffffffffffffffffffffff168273ffffffffffffffffffffffffffffffffffffffff16036123215760006040517f64a0ae92000000000000000000000000000000000000000000000000000000008152600401612318919061278a565b60405180910390fd5b600061232f838360006113ee565b9050600073ffffffffffffffffffffffffffffffffffffffff168173ffffffffffffffffffffffffffffffffffffffff16146123a35760006040517f73c6ac6e00000000000000000000000000000000000000000000000000000000815260040161239a919061278a565b60405180910390fd5b505050565b600080600090507a184f03e93ff9f4daa797ed6e38ed64bf6a1f0100000000000000008310612406577a184f03e93ff9f4daa797ed6e38ed64bf6a1f01000000000000000083816123fc576123fb613572565b5b0492506040810190505b6d04ee2d6d415b85acef81000000008310612443576d04ee2d6d415b85acef8100000000838161243957612438613572565b5b0492506020810190505b662386f26fc10000831061247257662386f26fc10000838161246857612467613572565b5b0492506010810190505b6305f5e100831061249b576305f5e100838161249157612490613572565b5b0492506008810190505b61271083106124c05761271083816124b6576124b5613572565b5b0492506004810190505b606483106124e357606483816124d9576124d8613572565b5b0492506002810190505b600a83106124f2576001810190505b80915050919050565b828054828255906000526020600020908101928215612537579160200282015b8281111561253657825182559160200191906001019061251b565b5b5090506125449190612548565b5090565b5b80821115612561576000816000905550600101612549565b5090565b6000604051905090565b600080fd5b600080fd5b60007fffffffff0000000000000000000000000000000000000000000000000000000082169050919050565b6125ae81612579565b81146125b957600080fd5b50565b6000813590506125cb816125a5565b92915050565b6000602082840312156125e7576125e661256f565b5b60006125f5848285016125bc565b91505092915050565b60008115159050919050565b612613816125fe565b82525050565b600060208201905061262e600083018461260a565b92915050565b600081519050919050565b600082825260208201905092915050565b60005b8381101561266e578082015181840152602081019050612653565b60008484015250505050565b6000601f19601f8301169050919050565b600061269682612634565b6126a0818561263f565b93506126b0818560208601612650565b6126b98161267a565b840191505092915050565b600060208201905081810360008301526126de818461268b565b905092915050565b6000819050919050565b6126f9816126e6565b811461270457600080fd5b50565b600081359050612716816126f0565b92915050565b6000602082840312156127325761273161256f565b5b600061274084828501612707565b91505092915050565b600073ffffffffffffffffffffffffffffffffffffffff82169050919050565b600061277482612749565b9050919050565b61278481612769565b82525050565b600060208201905061279f600083018461277b565b92915050565b6127ae81612769565b81146127b957600080fd5b50565b6000813590506127cb816127a5565b92915050565b600080604083850312156127e8576127e761256f565b5b60006127f6858286016127bc565b925050602061280785828601612707565b9150509250929050565b61281a816126e6565b82525050565b600081519050919050565b600082825260208201905092915050565b6000819050602082019050919050565b612855816126e6565b82525050565b6000612867838361284c565b60208301905092915050565b6000602082019050919050565b600061288b82612820565b612895818561282b565b93506128a08361283c565b8060005b838110156128d15781516128b8888261285b565b97506128c383612873565b9250506001810190506128a4565b5085935050505092915050565b600060e08201905081810360008301526128f8818a61268b565b9050818103602083015261290c818961268b565b90508181036040830152612920818861268b565b905061292f6060830187612811565b61293c6080830186612811565b81810360a083015261294e8185612880565b905061295d60c083018461260a565b98975050505050505050565b600080fd5b600080fd5b7f4e487b7100000000000000000000000000000000000000000000000000000000600052604160045260246000fd5b6129ab8261267a565b810181811067ffffffffffffffff821117156129ca576129c9612973565b5b80604052505050565b60006129dd612565565b90506129e982826129a2565b919050565b600067ffffffffffffffff821115612a0957612a08612973565b5b612a128261267a565b9050602081019050919050565b82818337600083830152505050565b6000612a41612a3c846129ee565b6129d3565b905082815260208101848484011115612a5d57612a5c61296e565b5b612a68848285612a1f565b509392505050565b600082601f830112612a8557612a84612969565b5b8135612a95848260208601612a2e565b91505092915050565b60008060008060808587031215612ab857612ab761256f565b5b6000612ac6878288016127bc565b9450506020612ad7878288016127bc565b9350506040612ae887828801612707565b925050606085013567ffffffffffffffff811115612b0957612b08612574565b5b612b1587828801612a70565b91505092959194509250565b612b2a81612579565b82525050565b6000602082019050612b456000830184612b21565b92915050565b6000602082019050612b606000830184612811565b92915050565b600080600060608486031215612b7f57612b7e61256f565b5b6000612b8d868287016127bc565b9350506020612b9e868287016127bc565b9250506040612baf86828701612707565b9150509250925092565b600067ffffffffffffffff821115612bd457612bd3612973565b5b612bdd8261267a565b9050602081019050919050565b6000612bfd612bf884612bb9565b6129d3565b905082815260208101848484011115612c1957612c1861296e565b5b612c24848285612a1f565b509392505050565b600082601f830112612c4157612c40612969565b5b8135612c51848260208601612bea565b91505092915050565b600080600080600060a08688031215612c7657612c7561256f565b5b600086013567ffffffffffffffff811115612c9457612c93612574565b5b612ca088828901612c2c565b955050602086013567ffffffffffffffff811115612cc157612cc0612574565b5b612ccd88828901612c2c565b945050604086013567ffffffffffffffff811115612cee57612ced612574565b5b612cfa88828901612c2c565b9350506060612d0b88828901612707565b9250506080612d1c88828901612707565b9150509295509295909350565b600060208284031215612d3f57612d3e61256f565b5b6000612d4d848285016127bc565b91505092915050565b600061010082019050612d6c600083018b612811565b612d79602083018a61277b565b8181036040830152612d8b818961268b565b90508181036060830152612d9f818861268b565b90508181036080830152612db3818761268b565b9050612dc260a0830186612811565b612dcf60c0830185612811565b612ddc60e083018461260a565b9998505050505050505050565b612df2816125fe565b8114612dfd57600080fd5b50565b600081359050612e0f81612de9565b92915050565b60008060408385031215612e2c57612e2b61256f565b5b6000612e3a858286016127bc565b9250506020612e4b85828601612e00565b9150509250929050565b60008060408385031215612e6c57612e6b61256f565b5b6000612e7a858286016127bc565b9250506020612e8b858286016127bc565b9150509250929050565b7f4e487b7100000000000000000000000000000000000000000000000000000000600052602260045260246000fd5b60006002820490506001821680612edc57607f821691505b602082108103612eef57612eee612e95565b5b50919050565b7f50726f6475637420646f6573206e6f742065786973742e000000000000000000600082015250565b6000612f2b60178361263f565b9150612f3682612ef5565b602082019050919050565b60006020820190508181036000830152612f5a81612f1e565b9050919050565b6000606082019050612f76600083018661277b565b612f836020830185612811565b612f90604083018461277b565b949350505050565b7f5072696365206d7573742062652067726561746572207468616e207a65726f2e600082015250565b6000612fce60208361263f565b9150612fd982612f98565b602082019050919050565b60006020820190508181036000830152612ffd81612fc1565b9050919050565b7f5175616e74697479206d7573742062652067726561746572207468616e207a6560008201527f726f2e0000000000000000000000000000000000000000000000000000000000602082015250565b600061306060238361263f565b915061306b82613004565b604082019050919050565b6000602082019050818103600083015261308f81613053565b9050919050565b7f4e487b7100000000000000000000000000000000000000000000000000000000600052601160045260246000fd5b60006130d0826126e6565b91507fffffffffffffffffffffffffffffffffffffffffffffffffffffffffffffffff820361310257613101613096565b5b600182019050919050565b7f4e487b7100000000000000000000000000000000000000000000000000000000600052603260045260246000fd5b60006080820190506131516000830187612811565b8181036020830152613163818661268b565b90506131726040830185612811565b61317f6060830184612811565b95945050505050565b600081905092915050565b600061319e82612634565b6131a88185613188565b93506131b8818560208601612650565b80840191505092915050565b60006131d08285613193565b91506131dc8284613193565b91508190509392505050565b60008190508160005260206000209050919050565b60006020601f8301049050919050565b600082821b905092915050565b60006008830261324a7fffffffffffffffffffffffffffffffffffffffffffffffffffffffffffffffff8261320d565b613254868361320d565b95508019841693508086168417925050509392505050565b6000819050919050565b600061329161328c613287846126e6565b61326c565b6126e6565b9050919050565b6000819050919050565b6132ab83613276565b6132bf6132b782613298565b84845461321a565b825550505050565b600090565b6132d46132c7565b6132df8184846132a2565b505050565b5b81811015613303576132f86000826132cc565b6001810190506132e5565b5050565b601f82111561334857613319816131e8565b613322846131fd565b81016020851015613331578190505b61334561333d856131fd565b8301826132e4565b50505b505050565b600082821c905092915050565b600061336b6000198460080261334d565b1980831691505092915050565b6000613384838361335a565b9150826002028217905092915050565b61339d82612634565b67ffffffffffffffff8111156133b6576133b5612973565b5b6133c08254612ec4565b6133cb828285613307565b600060209050601f8311600181146133fe57600084156133ec578287015190505b6133f68582613378565b86555061345e565b601f19841661340c866131e8565b60005b828110156134345784890151825560018201915060208501945060208101905061340f565b86831015613451578489015161344d601f89168261335a565b8355505b6001600288020188555050505b505050505050565b600081519050919050565b600082825260208201905092915050565b600061348d82613466565b6134978185613471565b93506134a7818560208601612650565b6134b08161267a565b840191505092915050565b60006080820190506134d0600083018761277b565b6134dd602083018661277b565b6134ea6040830185612811565b81810360608301526134fc8184613482565b905095945050505050565b600081519050613516816125a5565b92915050565b6000602082840312156135325761353161256f565b5b600061354084828501613507565b91505092915050565b600060408201905061355e600083018561277b565b61356b6020830184612811565b9392505050565b7f4e487b7100000000000000000000000000000000000000000000000000000000600052601260045260246000fdfea2646970667358221220d85ebc9d64fc4f12ffba8956f3976d484aaf1463ca09073fa18e159884b33f6c64736f6c634300081b0033",
  "linkReferences": {},
  "deployedLinkReferences": {}
}