{
  "_format": "hh-sol-artifact-1",
  "contractName": "Product",
  "sourceName": "contracts/Product.sol",
  "abi": [
    {
      "anonymous": false,
      "inputs": [
        {
          "indexed": false,
          "internalType": "uint256",
          "name": "productId",
          "type": "uint256"
        },
        {
          "indexed": true,
          "internalType": "address",
          "name": "roaster",
          "type": "address"
        },
        {
          "indexed": false,
          "internalType": "string",
          "name": "name",
          "type": "string"
        },
        {
          "indexed": false,
          "internalType": "uint256",
          "name": "price",
          "type": "uint256"
        },
        {
          "indexed": false,
          "internalType": "uint256",
          "name": "quantity",
          "type": "uint256"
        }
      ],
      "name": "ProductAdded",
      "type": "event"
    },
    {
      "inputs": [
        {
          "internalType": "uint256",
          "name": "_productId",
          "type": "uint256"
        }
      ],
      "name": "getListing",
      "outputs": [
        {
          "internalType": "string",
          "name": "name",
          "type": "string"
        },
        {
          "internalType": "string",
          "name": "description",
          "type": "string"
        },
        {
          "internalType": "string",
          "name": "ipfsHash",
          "type": "string"
        },
        {
          "internalType": "uint256",
          "name": "price",
          "type": "uint256"
        },
        {
          "internalType": "uint256",
          "name": "quantity",
          "type": "uint256"
        },
        {
          "internalType": "uint256[]",
          "name": "nftIds",
          "type": "uint256[]"
        },
        {
          "internalType": "bool",
          "name": "available",
          "type": "bool"
        }
      ],
      "stateMutability": "view",
      "type": "function"
    },
    {
      "inputs": [],
      "name": "productCounter",
      "outputs": [
        {
          "internalType": "uint256",
          "name": "",
          "type": "uint256"
        }
      ],
      "stateMutability": "view",
      "type": "function"
    },
    {
      "inputs": [
        {
          "internalType": "uint256",
          "name": "",
          "type": "uint256"
        }
      ],
      "name": "products",
      "outputs": [
        {
          "internalType": "uint256",
          "name": "productId",
          "type": "uint256"
        },
        {
          "internalType": "address",
          "name": "roaster",
          "type": "address"
        },
        {
          "internalType": "string",
          "name": "name",
          "type": "string"
        },
        {
          "internalType": "string",
          "name": "description",
          "type": "string"
        },
        {
          "internalType": "string",
          "name": "ipfsHash",
          "type": "string"
        },
        {
          "internalType": "uint256",
          "name": "price",
          "type": "uint256"
        },
        {
          "internalType": "uint256",
          "name": "quantity",
          "type": "uint256"
        },
        {
          "internalType": "bool",
          "name": "available",
          "type": "bool"
        }
      ],
      "stateMutability": "view",
      "type": "function"
    }
  ],
  "bytecode": "0x608060405260008055348015601357600080fd5b50610a90806100236000396000f3fe608060405234801561001057600080fd5b50600436106100415760003560e01c8063107a274a146100465780631f16653b1461007c5780637acc0b201461009a575b600080fd5b610060600480360381019061005b919061066f565b6100d1565b6040516100739796959493929190610814565b60405180910390f35b610084610421565b604051610091919061089f565b60405180910390f35b6100b460048036038101906100af919061066f565b610427565b6040516100c89897969594939291906108fb565b60405180910390f35b60608060606000806060600080600160008a815260200190815260200160002060405180610120016040529081600082015481526020016001820160009054906101000a900473ffffffffffffffffffffffffffffffffffffffff1673ffffffffffffffffffffffffffffffffffffffff1673ffffffffffffffffffffffffffffffffffffffff16815260200160028201805461016d906109bd565b80601f0160208091040260200160405190810160405280929190818152602001828054610199906109bd565b80156101e65780601f106101bb576101008083540402835291602001916101e6565b820191906000526020600020905b8154815290600101906020018083116101c957829003601f168201915b505050505081526020016003820180546101ff906109bd565b80601f016020809104026020016040519081016040528092919081815260200182805461022b906109bd565b80156102785780601f1061024d57610100808354040283529160200191610278565b820191906000526020600020905b81548152906001019060200180831161025b57829003601f168201915b50505050508152602001600482018054610291906109bd565b80601f01602080910402602001604051908101604052809291908181526020018280546102bd906109bd565b801561030a5780601f106102df5761010080835404028352916020019161030a565b820191906000526020600020905b8154815290600101906020018083116102ed57829003601f168201915b5050505050815260200160058201548152602001600682015481526020016007820180548060200260200160405190810160405280929190818152602001828054801561037657602002820191906000526020600020905b815481526020019060010190808311610362575b505050505081526020016008820160009054906101000a900460ff161515151581525050905060008160000151116103e3576040517f08c379a00000000000000000000000000000000000000000000000000000000081526004016103da90610a3a565b60405180910390fd5b8060400151816060015182608001518360a001518460c001518560e00151866101000151975097509750975097509750975050919395979092949650565b60005481565b60016020528060005260406000206000915090508060000154908060010160009054906101000a900473ffffffffffffffffffffffffffffffffffffffff1690806002018054610476906109bd565b80601f01602080910402602001604051908101604052809291908181526020018280546104a2906109bd565b80156104ef5780601f106104c4576101008083540402835291602001916104ef565b820191906000526020600020905b8154815290600101906020018083116104d257829003601f168201915b505050505090806003018054610504906109bd565b80601f0160208091040260200160405190810160405280929190818152602001828054610530906109bd565b801561057d5780601f106105525761010080835404028352916020019161057d565b820191906000526020600020905b81548152906001019060200180831161056057829003601f168201915b505050505090806004018054610592906109bd565b80601f01602080910402602001604051908101604052809291908181526020018280546105be906109bd565b801561060b5780601f106105e05761010080835404028352916020019161060b565b820191906000526020600020905b8154815290600101906020018083116105ee57829003601f168201915b5050505050908060050154908060060154908060080160009054906101000a900460ff16905088565b600080fd5b6000819050919050565b61064c81610639565b811461065757600080fd5b50565b60008135905061066981610643565b92915050565b60006020828403121561068557610684610634565b5b60006106938482850161065a565b91505092915050565b600081519050919050565b600082825260208201905092915050565b60005b838110156106d65780820151818401526020810190506106bb565b60008484015250505050565b6000601f19601f8301169050919050565b60006106fe8261069c565b61070881856106a7565b93506107188185602086016106b8565b610721816106e2565b840191505092915050565b61073581610639565b82525050565b600081519050919050565b600082825260208201905092915050565b6000819050602082019050919050565b61077081610639565b82525050565b60006107828383610767565b60208301905092915050565b6000602082019050919050565b60006107a68261073b565b6107b08185610746565b93506107bb83610757565b8060005b838110156107ec5781516107d38882610776565b97506107de8361078e565b9250506001810190506107bf565b5085935050505092915050565b60008115159050919050565b61080e816107f9565b82525050565b600060e082019050818103600083015261082e818a6106f3565b9050818103602083015261084281896106f3565b9050818103604083015261085681886106f3565b9050610865606083018761072c565b610872608083018661072c565b81810360a0830152610884818561079b565b905061089360c0830184610805565b98975050505050505050565b60006020820190506108b4600083018461072c565b92915050565b600073ffffffffffffffffffffffffffffffffffffffff82169050919050565b60006108e5826108ba565b9050919050565b6108f5816108da565b82525050565b600061010082019050610911600083018b61072c565b61091e602083018a6108ec565b818103604083015261093081896106f3565b9050818103606083015261094481886106f3565b9050818103608083015261095881876106f3565b905061096760a083018661072c565b61097460c083018561072c565b61098160e0830184610805565b9998505050505050505050565b7f4e487b7100000000000000000000000000000000000000000000000000000000600052602260045260246000fd5b600060028204905060018216806109d557607f821691505b6020821081036109e8576109e761098e565b5b50919050565b7f50726f6475637420646f6573206e6f742065786973742e000000000000000000600082015250565b6000610a246017836106a7565b9150610a2f826109ee565b602082019050919050565b60006020820190508181036000830152610a5381610a17565b905091905056fea2646970667358221220e683822aa416b1b384e4fba91381248efe787c79441f348a568c2242c41e3c2964736f6c634300081b0033",
  "linkReferences": {},
  "deployedLinkReferences": {}
}