{
  "_format": "hh-sol-artifact-1",
  "contractName": "CoffeeMarketplace",
  "sourceName": "contracts/CoffeeMarketplace.sol",
  "abi": [
    {
      "inputs": [
        {
          "internalType": "address",
          "name": "_productContractAddress",
          "type": "address"
        },
        {
          "internalType": "address",
          "name": "_leaderboardContractAddress",
          "type": "address"
        },
        {
          "internalType": "address",
          "name": "_nftContractAddress",
          "type": "address"
        }
      ],
      "stateMutability": "nonpayable",
      "type": "constructor"
    },
    {
      "inputs": [
        {
          "internalType": "address",
          "name": "sender",
          "type": "address"
        },
        {
          "internalType": "uint256",
          "name": "tokenId",
          "type": "uint256"
        },
        {
          "internalType": "address",
          "name": "owner",
          "type": "address"
        }
      ],
      "name": "ERC721IncorrectOwner",
      "type": "error"
    },
    {
      "inputs": [
        {
          "internalType": "address",
          "name": "operator",
          "type": "address"
        },
        {
          "internalType": "uint256",
          "name": "tokenId",
          "type": "uint256"
        }
      ],
      "name": "ERC721InsufficientApproval",
      "type": "error"
    },
    {
      "inputs": [
        {
          "internalType": "address",
          "name": "approver",
          "type": "address"
        }
      ],
      "name": "ERC721InvalidApprover",
      "type": "error"
    },
    {
      "inputs": [
        {
          "internalType": "address",
          "name": "operator",
          "type": "address"
        }
      ],
      "name": "ERC721InvalidOperator",
      "type": "error"
    },
    {
      "inputs": [
        {
          "internalType": "address",
          "name": "owner",
          "type": "address"
        }
      ],
      "name": "ERC721InvalidOwner",
      "type": "error"
    },
    {
      "inputs": [
        {
          "internalType": "address",
          "name": "receiver",
          "type": "address"
        }
      ],
      "name": "ERC721InvalidReceiver",
      "type": "error"
    },
    {
      "inputs": [
        {
          "internalType": "address",
          "name": "sender",
          "type": "address"
        }
      ],
      "name": "ERC721InvalidSender",
      "type": "error"
    },
    {
      "inputs": [
        {
          "internalType": "uint256",
          "name": "tokenId",
          "type": "uint256"
        }
      ],
      "name": "ERC721NonexistentToken",
      "type": "error"
    },
    {
      "inputs": [
        {
          "internalType": "address",
          "name": "owner",
          "type": "address"
        }
      ],
      "name": "OwnableInvalidOwner",
      "type": "error"
    },
    {
      "inputs": [
        {
          "internalType": "address",
          "name": "account",
          "type": "address"
        }
      ],
      "name": "OwnableUnauthorizedAccount",
      "type": "error"
    },
    {
      "anonymous": false,
      "inputs": [
        {
          "indexed": true,
          "internalType": "address",
          "name": "owner",
          "type": "address"
        },
        {
          "indexed": true,
          "internalType": "address",
          "name": "approved",
          "type": "address"
        },
        {
          "indexed": true,
          "internalType": "uint256",
          "name": "tokenId",
          "type": "uint256"
        }
      ],
      "name": "Approval",
      "type": "event"
    },
    {
      "anonymous": false,
      "inputs": [
        {
          "indexed": true,
          "internalType": "address",
          "name": "owner",
          "type": "address"
        },
        {
          "indexed": true,
          "internalType": "address",
          "name": "operator",
          "type": "address"
        },
        {
          "indexed": false,
          "internalType": "bool",
          "name": "approved",
          "type": "bool"
        }
      ],
      "name": "ApprovalForAll",
      "type": "event"
    },
    {
      "anonymous": false,
      "inputs": [
        {
          "indexed": false,
          "internalType": "uint256",
          "name": "_fromTokenId",
          "type": "uint256"
        },
        {
          "indexed": false,
          "internalType": "uint256",
          "name": "_toTokenId",
          "type": "uint256"
        }
      ],
      "name": "BatchMetadataUpdate",
      "type": "event"
    },
    {
      "anonymous": false,
      "inputs": [
        {
          "indexed": false,
          "internalType": "uint256",
          "name": "productId",
          "type": "uint256"
        },
        {
          "indexed": true,
          "internalType": "address",
          "name": "roaster",
          "type": "address"
        },
        {
          "indexed": false,
          "internalType": "string",
          "name": "name",
          "type": "string"
        },
        {
          "indexed": false,
          "internalType": "uint256",
          "name": "price",
          "type": "uint256"
        },
        {
          "indexed": false,
          "internalType": "uint256",
          "name": "quantity",
          "type": "uint256"
        }
      ],
      "name": "ListingAdded",
      "type": "event"
    },
    {
      "anonymous": false,
      "inputs": [
        {
          "indexed": false,
          "internalType": "uint256",
          "name": "_tokenId",
          "type": "uint256"
        }
      ],
      "name": "MetadataUpdate",
      "type": "event"
    },
    {
      "anonymous": false,
      "inputs": [
        {
          "indexed": false,
          "internalType": "address",
          "name": "customer",
          "type": "address"
        },
        {
          "indexed": false,
          "internalType": "uint256",
          "name": "tokenId",
          "type": "uint256"
        }
      ],
      "name": "MonthlyRewardDistributed",
      "type": "event"
    },
    {
      "anonymous": false,
      "inputs": [
        {
          "indexed": true,
          "internalType": "uint256",
          "name": "tokenId",
          "type": "uint256"
        },
        {
          "indexed": true,
          "internalType": "address",
          "name": "owner",
          "type": "address"
        },
        {
          "indexed": false,
          "internalType": "string",
          "name": "name",
          "type": "string"
        },
        {
          "indexed": false,
          "internalType": "string",
          "name": "ipfsHash",
          "type": "string"
        },
        {
          "indexed": false,
          "internalType": "uint256",
          "name": "price",
          "type": "uint256"
        }
      ],
      "name": "NFTMinted",
      "type": "event"
    },
    {
      "anonymous": false,
      "inputs": [
        {
          "indexed": true,
          "internalType": "uint256",
          "name": "productId",
          "type": "uint256"
        },
        {
          "indexed": true,
          "internalType": "uint256",
          "name": "tokenId",
          "type": "uint256"
        },
        {
          "indexed": true,
          "internalType": "address",
          "name": "buyer",
          "type": "address"
        },
        {
          "indexed": false,
          "internalType": "uint256",
          "name": "price",
          "type": "uint256"
        }
      ],
      "name": "NFTPurchased",
      "type": "event"
    },
    {
      "anonymous": false,
      "inputs": [
        {
          "indexed": true,
          "internalType": "uint256",
          "name": "tokenId",
          "type": "uint256"
        },
        {
          "indexed": true,
          "internalType": "address",
          "name": "from",
          "type": "address"
        },
        {
          "indexed": true,
          "internalType": "address",
          "name": "to",
          "type": "address"
        },
        {
          "indexed": false,
          "internalType": "uint256",
          "name": "price",
          "type": "uint256"
        }
      ],
      "name": "NFTTransferred",
      "type": "event"
    },
    {
      "anonymous": false,
      "inputs": [
        {
          "indexed": true,
          "internalType": "address",
          "name": "previousOwner",
          "type": "address"
        },
        {
          "indexed": true,
          "internalType": "address",
          "name": "newOwner",
          "type": "address"
        }
      ],
      "name": "OwnershipTransferred",
      "type": "event"
    },
    {
      "anonymous": false,
      "inputs": [
        {
          "indexed": true,
          "internalType": "address",
          "name": "from",
          "type": "address"
        },
        {
          "indexed": true,
          "internalType": "address",
          "name": "to",
          "type": "address"
        },
        {
          "indexed": true,
          "internalType": "uint256",
          "name": "tokenId",
          "type": "uint256"
        }
      ],
      "name": "Transfer",
      "type": "event"
    },
    {
      "inputs": [
        {
          "internalType": "string",
          "name": "_name",
          "type": "string"
        },
        {
          "internalType": "string",
          "name": "_description",
          "type": "string"
        },
        {
          "internalType": "string",
          "name": "_ipfsHash",
          "type": "string"
        },
        {
          "internalType": "uint256",
          "name": "_price",
          "type": "uint256"
        },
        {
          "internalType": "uint256",
          "name": "_quantity",
          "type": "uint256"
        },
        {
          "internalType": "string",
          "name": "_origin",
          "type": "string"
        },
        {
          "internalType": "string",
          "name": "_roastLevel",
          "type": "string"
        },
        {
          "internalType": "string",
          "name": "_beanType",
          "type": "string"
        },
        {
          "internalType": "string",
          "name": "_processMethod",
          "type": "string"
        }
      ],
      "name": "addRoasterListing",
      "outputs": [],
      "stateMutability": "nonpayable",
      "type": "function"
    },
    {
      "inputs": [
        {
          "internalType": "address",
          "name": "to",
          "type": "address"
        },
        {
          "internalType": "uint256",
          "name": "tokenId",
          "type": "uint256"
        }
      ],
      "name": "approve",
      "outputs": [],
      "stateMutability": "nonpayable",
      "type": "function"
    },
    {
      "inputs": [
        {
          "internalType": "address",
          "name": "owner",
          "type": "address"
        }
      ],
      "name": "balanceOf",
      "outputs": [
        {
          "internalType": "uint256",
          "name": "",
          "type": "uint256"
        }
      ],
      "stateMutability": "view",
      "type": "function"
    },
    {
      "inputs": [
        {
          "internalType": "uint256",
          "name": "productId",
          "type": "uint256"
        },
        {
          "internalType": "uint256[]",
          "name": "tokenIds",
          "type": "uint256[]"
        }
      ],
      "name": "bulkPurchaseNFTs",
      "outputs": [],
      "stateMutability": "payable",
      "type": "function"
    },
    {
      "inputs": [
        {
          "internalType": "bytes",
          "name": "",
          "type": "bytes"
        }
      ],
      "name": "checkUpkeep",
      "outputs": [
        {
          "internalType": "bool",
          "name": "upkeepNeeded",
          "type": "bool"
        },
        {
          "internalType": "bytes",
          "name": "",
          "type": "bytes"
        }
      ],
      "stateMutability": "view",
      "type": "function"
    },
    {
      "inputs": [],
      "name": "distributeMonthlyReward",
      "outputs": [],
      "stateMutability": "nonpayable",
      "type": "function"
    },
    {
      "inputs": [
        {
          "internalType": "uint256",
          "name": "tokenId",
          "type": "uint256"
        }
      ],
      "name": "getApproved",
      "outputs": [
        {
          "internalType": "address",
          "name": "",
          "type": "address"
        }
      ],
      "stateMutability": "view",
      "type": "function"
    },
    {
      "inputs": [
        {
          "internalType": "uint256",
          "name": "_productId",
          "type": "uint256"
        }
      ],
      "name": "getListing",
      "outputs": [
        {
          "internalType": "string",
          "name": "name",
          "type": "string"
        },
        {
          "internalType": "string",
          "name": "description",
          "type": "string"
        },
        {
          "internalType": "string",
          "name": "ipfsHash",
          "type": "string"
        },
        {
          "internalType": "uint256",
          "name": "price",
          "type": "uint256"
        },
        {
          "internalType": "uint256",
          "name": "quantity",
          "type": "uint256"
        },
        {
          "internalType": "uint256[]",
          "name": "nftIds",
          "type": "uint256[]"
        },
        {
          "internalType": "bool",
          "name": "available",
          "type": "bool"
        },
        {
          "internalType": "string",
          "name": "origin",
          "type": "string"
        },
        {
          "internalType": "string",
          "name": "roastLevel",
          "type": "string"
        },
        {
          "internalType": "string",
          "name": "beanType",
          "type": "string"
        },
        {
          "internalType": "string",
          "name": "processMethod",
          "type": "string"
        },
        {
          "internalType": "uint256",
          "name": "roastDate",
          "type": "uint256"
        }
      ],
      "stateMutability": "view",
      "type": "function"
    },
    {
      "inputs": [
        {
          "internalType": "uint256",
          "name": "tokenId",
          "type": "uint256"
        }
      ],
      "name": "getNFTPrice",
      "outputs": [
        {
          "internalType": "uint256",
          "name": "",
          "type": "uint256"
        }
      ],
      "stateMutability": "view",
      "type": "function"
    },
    {
      "inputs": [
        {
          "internalType": "address",
          "name": "owner",
          "type": "address"
        },
        {
          "internalType": "address",
          "name": "operator",
          "type": "address"
        }
      ],
      "name": "isApprovedForAll",
      "outputs": [
        {
          "internalType": "bool",
          "name": "",
          "type": "bool"
        }
      ],
      "stateMutability": "view",
      "type": "function"
    },
    {
      "inputs": [
        {
          "internalType": "uint256",
          "name": "tokenId",
          "type": "uint256"
        }
      ],
      "name": "isNFTAvailableForPurchase",
      "outputs": [
        {
          "internalType": "bool",
          "name": "",
          "type": "bool"
        }
      ],
      "stateMutability": "view",
      "type": "function"
    },
    {
      "inputs": [],
      "name": "lastRewardTime",
      "outputs": [
        {
          "internalType": "uint256",
          "name": "",
          "type": "uint256"
        }
      ],
      "stateMutability": "view",
      "type": "function"
    },
    {
      "inputs": [],
      "name": "leaderboardContract",
      "outputs": [
        {
          "internalType": "contract Leaderboard",
          "name": "",
          "type": "address"
        }
      ],
      "stateMutability": "view",
      "type": "function"
    },
    {
      "inputs": [],
      "name": "name",
      "outputs": [
        {
          "internalType": "string",
          "name": "",
          "type": "string"
        }
      ],
      "stateMutability": "view",
      "type": "function"
    },
    {
      "inputs": [],
      "name": "nftContract",
      "outputs": [
        {
          "internalType": "contract CoffeeNFT",
          "name": "",
          "type": "address"
        }
      ],
      "stateMutability": "view",
      "type": "function"
    },
    {
      "inputs": [
        {
          "internalType": "address",
          "name": "",
          "type": "address"
        },
        {
          "internalType": "address",
          "name": "",
          "type": "address"
        },
        {
          "internalType": "uint256",
          "name": "",
          "type": "uint256"
        },
        {
          "internalType": "bytes",
          "name": "",
          "type": "bytes"
        }
      ],
      "name": "onERC721Received",
      "outputs": [
        {
          "internalType": "bytes4",
          "name": "",
          "type": "bytes4"
        }
      ],
      "stateMutability": "nonpayable",
      "type": "function"
    },
    {
      "inputs": [],
      "name": "owner",
      "outputs": [
        {
          "internalType": "address",
          "name": "",
          "type": "address"
        }
      ],
      "stateMutability": "view",
      "type": "function"
    },
    {
      "inputs": [
        {
          "internalType": "uint256",
          "name": "tokenId",
          "type": "uint256"
        }
      ],
      "name": "ownerOf",
      "outputs": [
        {
          "internalType": "address",
          "name": "",
          "type": "address"
        }
      ],
      "stateMutability": "view",
      "type": "function"
    },
    {
      "inputs": [
        {
          "internalType": "bytes",
          "name": "",
          "type": "bytes"
        }
      ],
      "name": "performUpkeep",
      "outputs": [],
      "stateMutability": "nonpayable",
      "type": "function"
    },
    {
      "inputs": [],
      "name": "productContract",
      "outputs": [
        {
          "internalType": "contract Product",
          "name": "",
          "type": "address"
        }
      ],
      "stateMutability": "view",
      "type": "function"
    },
    {
      "inputs": [
        {
          "internalType": "uint256",
          "name": "",
          "type": "uint256"
        },
        {
          "internalType": "uint256",
          "name": "",
          "type": "uint256"
        }
      ],
      "name": "productTokens",
      "outputs": [
        {
          "internalType": "uint256",
          "name": "",
          "type": "uint256"
        }
      ],
      "stateMutability": "view",
      "type": "function"
    },
    {
      "inputs": [
        {
          "internalType": "uint256",
          "name": "productId",
          "type": "uint256"
        },
        {
          "internalType": "uint256",
          "name": "tokenId",
          "type": "uint256"
        }
      ],
      "name": "purchaseNFT",
      "outputs": [],
      "stateMutability": "payable",
      "type": "function"
    },
    {
      "inputs": [],
      "name": "renounceOwnership",
      "outputs": [],
      "stateMutability": "nonpayable",
      "type": "function"
    },
    {
      "inputs": [
        {
          "internalType": "address",
          "name": "from",
          "type": "address"
        },
        {
          "internalType": "address",
          "name": "to",
          "type": "address"
        },
        {
          "internalType": "uint256",
          "name": "tokenId",
          "type": "uint256"
        }
      ],
      "name": "safeTransferFrom",
      "outputs": [],
      "stateMutability": "nonpayable",
      "type": "function"
    },
    {
      "inputs": [
        {
          "internalType": "address",
          "name": "from",
          "type": "address"
        },
        {
          "internalType": "address",
          "name": "to",
          "type": "address"
        },
        {
          "internalType": "uint256",
          "name": "tokenId",
          "type": "uint256"
        },
        {
          "internalType": "bytes",
          "name": "data",
          "type": "bytes"
        }
      ],
      "name": "safeTransferFrom",
      "outputs": [],
      "stateMutability": "nonpayable",
      "type": "function"
    },
    {
      "inputs": [
        {
          "internalType": "address",
          "name": "operator",
          "type": "address"
        },
        {
          "internalType": "bool",
          "name": "approved",
          "type": "bool"
        }
      ],
      "name": "setApprovalForAll",
      "outputs": [],
      "stateMutability": "nonpayable",
      "type": "function"
    },
    {
      "inputs": [
        {
          "internalType": "bytes4",
          "name": "interfaceId",
          "type": "bytes4"
        }
      ],
      "name": "supportsInterface",
      "outputs": [
        {
          "internalType": "bool",
          "name": "",
          "type": "bool"
        }
      ],
      "stateMutability": "view",
      "type": "function"
    },
    {
      "inputs": [],
      "name": "symbol",
      "outputs": [
        {
          "internalType": "string",
          "name": "",
          "type": "string"
        }
      ],
      "stateMutability": "view",
      "type": "function"
    },
    {
      "inputs": [
        {
          "internalType": "uint256",
          "name": "tokenId",
          "type": "uint256"
        }
      ],
      "name": "tokenURI",
      "outputs": [
        {
          "internalType": "string",
          "name": "",
          "type": "string"
        }
      ],
      "stateMutability": "view",
      "type": "function"
    },
    {
      "inputs": [
        {
          "internalType": "address",
          "name": "from",
          "type": "address"
        },
        {
          "internalType": "address",
          "name": "to",
          "type": "address"
        },
        {
          "internalType": "uint256",
          "name": "tokenId",
          "type": "uint256"
        }
      ],
      "name": "transferFrom",
      "outputs": [],
      "stateMutability": "nonpayable",
      "type": "function"
    },
    {
      "inputs": [
        {
          "internalType": "uint256",
          "name": "tokenId",
          "type": "uint256"
        },
        {
          "internalType": "address",
          "name": "to",
          "type": "address"
        },
        {
          "internalType": "uint256",
          "name": "price",
          "type": "uint256"
        }
      ],
      "name": "transferNFT",
      "outputs": [],
      "stateMutability": "payable",
      "type": "function"
    },
    {
      "inputs": [
        {
          "internalType": "address",
          "name": "newOwner",
          "type": "address"
        }
      ],
      "name": "transferOwnership",
      "outputs": [],
      "stateMutability": "nonpayable",
      "type": "function"
    }
  ],
  "bytecode": "0x6080604052346104fb576131576060813803918261001c81610500565b9384928339810103126104fb5761003281610525565b61004a604061004360208501610525565b9301610525565b6100546040610500565b92600984526810dbd999995953919560ba1b60208501526100756040610500565b6006815265434f4646454560d01b6020820152845190946001600160401b0382116103fb5760005490600182811c921680156104f1575b60208310146103db5781601f849311610482575b50602090601f831160011461041c57600092610411575b50508160011b916000199060031b1c1916176000555b83516001600160401b0381116103fb57600154600181811c911680156103f1575b60208210146103db57601f8111610376575b50602094601f821160011461030f57948192939495600092610304575b50508160011b916000199060031b1c1916176001555b33156102ee5760078054336001600160a01b0319821681179092556040519491906001600160a01b03167f8be0079c531659141344cd1fd0a4f28419497f9722a3daafe3b4186f6b6457e0600080a36001600160a01b03169283156102ac57506001600160a01b031690811561025b576001600160a01b03169182156102165760018060a01b0319600854161760085560018060a01b0319600954161760095560018060a01b0319600a541617600a5542600b55604051612c1d908161053a8239f35b60405162461bcd60e51b815260206004820152601c60248201527f496e76616c6964204e465420636f6e74726163742061646472657373000000006044820152606490fd5b60405162461bcd60e51b8152602060048201526024808201527f496e76616c6964204c6561646572626f61726420636f6e7472616374206164646044820152637265737360e01b6064820152608490fd5b62461bcd60e51b815260206004820181905260248201527f496e76616c69642050726f6475637420636f6e747261637420616464726573736044820152606490fd5b631e4fbdf760e01b600052600060045260246000fd5b01519050388061013d565b601f198216956001600052806000209160005b88811061035e57508360019596979810610345575b505050811b01600155610153565b015160001960f88460031b161c19169055388080610337565b91926020600181928685015181550194019201610322565b60016000527fb10e2d527612073b26eecdfd717e6a320cf44b4afac2b0732d9fcbe2b7fa0cf6601f830160051c810191602084106103d1575b601f0160051c01905b8181106103c55750610120565b600081556001016103b8565b90915081906103af565b634e487b7160e01b600052602260045260246000fd5b90607f169061010e565b634e487b7160e01b600052604160045260246000fd5b0151905038806100d7565b60008080528281209350601f198516905b81811061046a5750908460019594939210610451575b505050811b016000556100ed565b015160001960f88460031b161c19169055388080610443565b9293602060018192878601518155019501930161042d565b600080529091507f290decd9548b62a8d60345a988386fc84ba6bc95484008f6362f93160ef3e563601f840160051c810191602085106104e7575b90601f859493920160051c01905b8181106104d857506100c0565b600081558493506001016104cb565b90915081906104bd565b91607f16916100ac565b600080fd5b6040519190601f01601f191682016001600160401b038111838210176103fb57604052565b51906001600160a01b03821682036104fb5756fe608080604052600436101561001357600080fd5b60003560e01c90816301ffc9a714611a655750806306fdde03146119aa578063081812fc1461196c578063095ea7b31461187d5780630fa705371461129c578063107a274a1461114d5780631209fe0d14610d4e578063150b7a0214610d2b57806323b872dd14610d145780632a28d4df14610ceb57806342842e0e14610cc15780634585e33b14610c8d57806354db8f2214610c655780635635319d14610c4c5780635bbc1a0414610a2e5780636352211e146109fe5780636e04ff0d1461099657806370a0823114610940578063715018a6146108e35780638da5cb5b146108ba5780639231cf741461089c578063929761791461079b57806395d89b41146106a3578063a22cb46514610602578063ad4451a31461034e578063b88d4fde14610332578063c87b56dd146102fb578063d56d229d146102d2578063dc24273714610292578063e985e9c514610237578063f2fde38b146101ad5763ff0224d31461017f57600080fd5b346101a85760003660031901126101a8576009546040516001600160a01b039091168152602090f35b600080fd5b346101a85760203660031901126101a8576101c6611b32565b6101ce612bbe565b6001600160a01b0316801561022157600780546001600160a01b0319811683179091556001600160a01b03167f8be0079c531659141344cd1fd0a4f28419497f9722a3daafe3b4186f6b6457e0600080a3005b631e4fbdf760e01b600052600060045260246000fd5b346101a85760403660031901126101a857610250611b32565b610258611b48565b9060018060a01b0316600052600560205260406000209060018060a01b0316600052602052602060ff604060002054166040519015158152f35b346101a8576102a036611d2b565b90600052600c602052604060002080548210156101a8576020916102c391611d41565b90549060031b1c604051908152f35b346101a85760003660031901126101a857600a546040516001600160a01b039091168152602090f35b346101a85760203660031901126101a85761032e61031a600435612aa3565b604051918291602083526020830190611b0d565b0390f35b346101a85761034c61034336611c3a565b92919091612980565b005b61035736611d2b565b600a546040516331a9108f60e11b8152600481018390526001600160a01b0390911690602081602481855afa908115610525576000916105bd575b506024916000916103ad906001600160a01b03163014611fb1565b60405192838092636be9a6f160e01b82528660048301525afa908115610525576103ee91600091600091610588575b506103e690612104565b341015612150565b600854604051631232338760e21b81526004810184905290602090829060249082906001600160a01b03165afa90811561052557600091610542575b5060008080806104599460018060a01b0316610447811515611f65565b34905af1610453612193565b506121c3565b600a546001600160a01b0316803b156101a857604051632142170760e11b815230600482015233602482015260448101839052906000908290606490829084905af1801561052557610531575b506008546001600160a01b0316803b156101a85760008091602460405180948193639cef5ca960e01b83528860048401525af1801561052557610514575b50604051913483527f5228aeaf7727cc737b9ae986be18ef1ab61f0976f5513ab4e6160454eaf082b360203394a4005b600061051f91611b5e565b826104e4565b6040513d6000823e3d90fd5b600061053c91611b5e565b826104a6565b90506020813d602011610580575b8161055d60209383611b5e565b810103126101a857600080808061057661045995611f51565b945050505061042a565b3d9150610550565b6103e692506105aa91503d806000833e6105a28183611b5e565b810190611ffd565b50505050509594509250505091906103dc565b90506020813d6020116105fa575b816105d860209383611b5e565b810103126101a8576024916103ad6105f1600093611f51565b92505091610392565b3d91506105cb565b346101a85760403660031901126101a85761061b611b32565b602435908115158092036101a8576001600160a01b031690811561068e57336000526005602052604060002082600052602052604060002060ff1981541660ff83161790556040519081527f17307eab39ab6107e8899845ad3d59bd9653f200f220920489ca2b5937696c3160203392a3005b50630b61174360e31b60005260045260246000fd5b346101a85760003660031901126101a85760405160006001548060011c90600181168015610791575b60208310811461077d5782855290811561075957506001146106f9575b61032e8361031a81850382611b5e565b91905060016000527fb10e2d527612073b26eecdfd717e6a320cf44b4afac2b0732d9fcbe2b7fa0cf6916000905b80821061073f5750909150810160200161031a6106e9565b919260018160209254838588010152019101909291610727565b60ff191660208086019190915291151560051b8401909101915061031a90506106e9565b634e487b7160e01b84526022600452602484fd5b91607f16916106cc565b346101a85760203660031901126101a857600a546040516331a9108f60e11b8152600480359082018190526001600160a01b0390921691602082602481865afa9182156105255760009261085c575b50600091610802906001600160a01b03163014611fb1565b602460405180948193636be9a6f160e01b835260048301525afa801561052557602091600091610836575b50604051908152f35b61084b91503d806000833e6105a28183611b5e565b50505050505093505050508261082d565b91506020823d602011610894575b8161087760209383611b5e565b810103126101a85761080261088d600093611f51565b92506107ea565b3d915061086a565b346101a85760003660031901126101a8576020600b54604051908152f35b346101a85760003660031901126101a8576007546040516001600160a01b039091168152602090f35b346101a85760003660031901126101a8576108fc612bbe565b600780546001600160a01b031981169091556000906001600160a01b03167f8be0079c531659141344cd1fd0a4f28419497f9722a3daafe3b4186f6b6457e08280a3005b346101a85760203660031901126101a8576001600160a01b03610961611b32565b1680156109805760005260036020526020604060002054604051908152f35b6322718ad960e21b600052600060045260246000fd5b346101a8576109a436611cdc565b5050600b5462278d0081018091116109e857604051906109c5602083611b5e565b6000825261032e6040519283924210158352604060208401526040830190611b0d565b634e487b7160e01b600052601160045260246000fd5b346101a85760203660031901126101a8576020610a1c600435612b87565b6040516001600160a01b039091168152f35b60603660031901126101a8576024600435610a47611b48565b600a546040516331a9108f60e11b81526004810184905293604435939291602091869182906001600160a01b03165afa93841561052557600094610c0d575b506001600160a01b031680151580610c03575b15610bbe573303610b7a5781610b4c575b600a546001600160a01b0316803b156101a857604051632142170760e11b81526001600160a01b038516600482015233602482015260448101839052906000908290606490829084905af1801561052557610b3b575b5060405191825233926001600160a01b0316917f6a64dcba95bf473fff7da0fdf74710d1178f99f72f94db03faaaa2850188adeb90602090a4005b6000610b4691611b5e565b83610b00565b610b5882341015612150565b610b756000808080346001600160a01b0389165af1610453612193565b610aaa565b606460405162461bcd60e51b815260206004820152602060248201527f4f6e6c792062757965722063616e20696e697469617465207472616e736665726044820152fd5b60405162461bcd60e51b815260206004820152601960248201527f496e76616c696420726563697069656e742061646472657373000000000000006044820152606490fd5b5030811415610a99565b90936020823d602011610c44575b81610c2860209383611b5e565b81010312610c415750610c3a90611f51565b9284610a86565b80fd5b3d9150610c1b565b346101a85760003660031901126101a85761034c612520565b346101a85760203660031901126101a8576020610c83600435612421565b6040519015158152f35b346101a857610c9b36611cdc565b5050600b5462278d0081018091116109e857610cb9904210156123c4565b61034c612520565b346101a85761034c610cd236611ca2565b9060405192610ce2602085611b5e565b60008452612980565b346101a85760003660031901126101a8576008546040516001600160a01b039091168152602090f35b346101a85761034c610d2536611ca2565b91612208565b346101a857610d3936611c3a565b505050506020604051630a85bd0160e11b8152f35b60403660031901126101a8576024356004356001600160401b0382116101a857366023830112156101a857816004013591610d8883611c23565b92610d966040519485611b5e565b8084526024602085019160051b830101913683116101a857602401905b82821061113d5750505081511561110257600854604051631232338760e21b81526004810183905260009391602090829060249082906001600160a01b03165afa9081156110f75784916110b9575b5091926001600160a01b039092169190610e1d831515611f65565b819360018060a01b03600a5416925b8251861015610f3957610e3f8684611d6f565b51604051906331a9108f60e11b82526004820152602081602481885afa801561052557600090610eff575b610e7f91506001600160a01b03163014611fb1565b610e898684611d6f565b5160405190636be9a6f160e01b82526004820152600081602481885afa8015610525576000918291610ed4575b50610ec090612104565b81018091116109e857600190950194610e2c565b610eec9150610ec0923d8091833e6105a28183611b5e565b5050505050959450925050509190610eb6565b6020823d8211610f31575b81610f1760209383611b5e565b81010312610c415750610f2c610e7f91611f51565b610e6a565b3d9150610f0a565b600080808088610447610f4e96341015612150565b60005b825181101561106d57600a546001600160a01b0316610f708285611d6f565b5190803b156101a857604051632142170760e11b815230600482015233602482015260448101929092526000908290606490829084905af180156105255761105c575b50600a546001600160a01b0316906000610fcd8286611d6f565b51602460405180958193636be9a6f160e01b835260048301525afa801561052557600192600091611038575b506110048286611d6f565b51604051918252847f5228aeaf7727cc737b9ae986be18ef1ab61f0976f5513ab4e6160454eaf082b360203394a401610f51565b61104b913d8091833e6105a28183611b5e565b505050505050935050505085610ff9565b600061106791611b5e565b83610fb3565b506008546001600160a01b031690813b156101a857600091602483926040519485938492639cef5ca960e01b845260048401525af18015610525576110ae57005b600061034c91611b5e565b90506020813d6020116110ef575b816110d460209383611b5e565b810103126110eb576110e590611f51565b84610e02565b8380fd5b3d91506110c7565b6040513d86823e3d90fd5b60405162461bcd60e51b8152602060048201526013602482015272139bc81d1bdad95b9cc81cdc1958da599a5959606a1b6044820152606490fd5b8135815260209182019101610db3565b346101a85760203660031901126101a857600854604051632e76c56d60e21b8152600480359082015290600090829060249082906001600160a01b03165afa8015610525576000908192828384908586908792889489968a988b9a61125f575b506040519b8c9b6101808d526101808d016111c791611b0d565b8c810360208e01526111d891611b0d565b8b810360408d01526111e991611b0d565b9160608b015260808a015288810360a08a015261120591611bef565b90151560c088015286810360e088015261121e91611b0d565b85810361010087015261123091611b0d565b84810361012086015261124291611b0d565b83810361014085015261125491611b0d565b906101608301520390f35b9a995050505050505050505061128792503d8091833e61127f8183611b5e565b810190611dd2565b999a999890979196929593949392908c6111ad565b346101a8576101203660031901126101a8576004356001600160401b0381116101a8576112cd903690600401611bd1565b6024356001600160401b0381116101a8576112ec903690600401611bd1565b906044356001600160401b0381116101a85761130c903690600401611bd1565b91606435926084359060a4356001600160401b0381116101a857611334903690600401611bd1565b60c4356001600160401b0381116101a857611353903690600401611bd1565b9160e4356001600160401b0381116101a857611373903690600401611bd1565b94610104356001600160401b0381116101a857611394903690600401611bd1565b88156118395785156117e8578751156117ac57825115611767576004966113ba87611c23565b956113c86040519788611b5e565b878752601f196113d789611c23565b01366020890137600854604051631f16653b60e01b8152996020918b919082906001600160a01b03165afa98891561052557600099611733575b50600189018099116109e8578860005b8981106115a357505060085460405163269fe6f160e11b81523360048201526101606024820152976001600160a01b03909116968896879691929161146a61016489018f611b0d565b8881036003190160448a015261147f91611b0d565b87810360031901606489015261149491611b0d565b8d60848801528a60a48801526003198782030160c48801526114b591611bef565b8581036003190160e48701526114ca91611b0d565b848103600319016101048601526114e091611b0d565b838103600319016101248501526114f691611b0d565b8281036003190161014484015261150c91611b0d565b03815a602094600091f1801561052557611571575b5061155e7f2bdd1034b17e6ebad4865acc810494d30c833727fcbd3aab4021852260ee878893604051938452608060208501526080840190611b0d565b93604083015260608201528033930390a2005b6020813d60201161159b575b8161158a60209383611b5e565b810103126101a8575061155e611521565b3d915061157d565b600160a01b60019003600a54168d8d6040519485928392631bd118d360e21b845230600485015260248401610140905261014484016115e191611b0d565b8381036003190160448501526115f7908c611b0d565b83810360031901606485015261160d908d611b0d565b91608484015260a48301526003198282030160c483015261162e908c611b0d565b8181036003190160e48301526116449087611b0d565b8181036003190161010483015261165b9088611b0d565b818103600319016101248301526116729089611b0d565b03815a602094600091f191821561052557600092611700575b5081611697828b611d6f565b528a600052600c602052604060002091825492680100000000000000008410156116ea57836116cc9160018096018155611d41565b819291549060031b91821b91600019901b1916179055018990611421565b634e487b7160e01b600052604160045260246000fd5b90916020823d821161172b575b8161171a60209383611b5e565b81010312610c41575051908d61168b565b3d915061170d565b90986020823d60201161175f575b8161174e60209383611b5e565b81010312610c41575051978b611411565b3d9150611741565b60405162461bcd60e51b815260206004820152601960248201527f496d616765205552492063616e6e6f7420626520656d707479000000000000006044820152606490fd5b60405162461bcd60e51b81526020600482015260146024820152734e616d652063616e6e6f7420626520656d70747960601b6044820152606490fd5b60405162461bcd60e51b815260206004820152602360248201527f5175616e74697479206d7573742062652067726561746572207468616e207a6560448201526239379760e91b6064820152608490fd5b606460405162461bcd60e51b815260206004820152602060248201527f5072696365206d7573742062652067726561746572207468616e207a65726f2e6044820152fd5b346101a85760403660031901126101a857611896611b32565b6024356118a281612b87565b33151580611959575b8061192b575b6119165781906001600160a01b0384811691167f8c5be1e5ebec7d5bd14f71427d1e84f3dd0314c0f7b2291e5b200ac8c7c3b925600080a4600090815260046020526040902080546001600160a01b0319166001600160a01b03909216919091179055005b63a9fbf51f60e01b6000523360045260246000fd5b506001600160a01b038116600090815260056020908152604080832033845290915290205460ff16156118b1565b506001600160a01b0381163314156118ab565b346101a85760203660031901126101a85760043561198981612b87565b506000526004602052602060018060a01b0360406000205416604051908152f35b346101a85760003660031901126101a857604051600080548060011c90600181168015611a5b575b60208310811461077d5782855290811561075957506001146119fe5761032e8361031a81850382611b5e565b60008080527f290decd9548b62a8d60345a988386fc84ba6bc95484008f6362f93160ef3e563939250905b808210611a415750909150810160200161031a6106e9565b919260018160209254838588010152019101909291611a29565b91607f16916119d2565b346101a85760203660031901126101a8576004359063ffffffff60e01b82168092036101a857602091632483248360e11b8114908115611aa7575b5015158152f35b6380ac58cd60e01b811491508115611ad9575b8115611ac8575b5083611aa0565b6301ffc9a760e01b14905083611ac1565b635b5e139f60e01b81149150611aba565b60005b838110611afd5750506000910152565b8181015183820152602001611aed565b90602091611b2681518092818552858086019101611aea565b601f01601f1916010190565b600435906001600160a01b03821682036101a857565b602435906001600160a01b03821682036101a857565b90601f801991011681019081106001600160401b038211176116ea57604052565b6001600160401b0381116116ea57601f01601f191660200190565b929192611ba682611b7f565b91611bb46040519384611b5e565b8294818452818301116101a8578281602093846000960137010152565b9080601f830112156101a857816020611bec93359101611b9a565b90565b906020808351928381520192019060005b818110611c0d5750505090565b8251845260209384019390920191600101611c00565b6001600160401b0381116116ea5760051b60200190565b9060806003198301126101a8576004356001600160a01b03811681036101a857916024356001600160a01b03811681036101a8579160443591606435906001600160401b0382116101a857806023830112156101a857816024611bec93600401359101611b9a565b60609060031901126101a8576004356001600160a01b03811681036101a857906024356001600160a01b03811681036101a8579060443590565b9060206003198301126101a8576004356001600160401b0381116101a857826023820112156101a8578060040135926001600160401b0384116101a857602484830101116101a8576024019190565b60409060031901126101a8576004359060243590565b8054821015611d595760005260206000200190600090565b634e487b7160e01b600052603260045260246000fd5b8051821015611d595760209160051b010190565b81601f820112156101a8578051611d9981611b7f565b92611da76040519485611b5e565b818452602082840101116101a857611bec9160208085019101611aea565b519081151582036101a857565b9091610180828403126101a85781516001600160401b0381116101a85783611dfb918401611d83565b9260208301516001600160401b0381116101a85781611e1b918501611d83565b9260408101516001600160401b0381116101a85782611e3b918301611d83565b9260608201519260808301519260a08101516001600160401b0381116101a857810182601f820112156101a857805190611e7482611c23565b91611e826040519384611b5e565b80835260208084019160051b830101918583116101a857602001905b828210611f415750505092611eb560c08301611dc5565b9260e08301516001600160401b0381116101a85781611ed5918501611d83565b926101008101516001600160401b0381116101a85782611ef6918301611d83565b926101208201516001600160401b0381116101a85783611f17918401611d83565b926101408301516001600160401b0381116101a85761016091611f3b918501611d83565b92015190565b8151815260209182019101611e9e565b51906001600160a01b03821682036101a857565b15611f6c57565b60405162461bcd60e51b815260206004820152601760248201527f496e76616c696420726f617374657220616464726573730000000000000000006044820152606490fd5b15611fb857565b60405162461bcd60e51b815260206004820152601c60248201527f4e4654206e6f74206f776e6564206279206d61726b6574706c616365000000006044820152606490fd5b9190610160838203126101a85782516001600160401b0381116101a85781612026918501611d83565b9260208101516001600160401b0381116101a85782612046918301611d83565b9260408201516001600160401b0381116101a85783612066918401611d83565b9260608301519260808101519261207f60a08301611dc5565b9260c08301516001600160401b0381116101a8578161209f918501611d83565b9260e08101516001600160401b0381116101a857826120bf918301611d83565b926101008201516001600160401b0381116101a857836120e0918401611d83565b926101208301516001600160401b0381116101a85761014091611f3b918501611d83565b1561210b57565b60405162461bcd60e51b815260206004820152601760248201527f4e4654206e6f742061637469766520666f722073616c650000000000000000006044820152606490fd5b1561215757565b60405162461bcd60e51b8152602060048201526014602482015273125b9cdd59999a58da595b9d081c185e5b595b9d60621b6044820152606490fd5b3d156121be573d906121a482611b7f565b916121b26040519384611b5e565b82523d6000602084013e565b606090565b156121ca57565b60405162461bcd60e51b815260206004820152601660248201527511985a5b1959081d1bc81cd95b99081c185e5b595b9d60521b6044820152606490fd5b6001600160a01b03909116919082156123ae576000828152600260205260409020546001600160a01b031692829033151580612313575b50846122d5575b8060005260036020526040600020600181540190558160005260026020526040600020816bffffffffffffffffffffffff60a01b825416179055847fddf252ad1be2c89b69c2b068fc378daa952ba7f163c4a11628f55a4df523b3ef600080a46001600160a01b03168083036122bb57505050565b6364283d7b60e01b60005260045260245260445260646000fd5b81600052600460205260406000206bffffffffffffffffffffffff60a01b815416905584600052600360205260406000206000198154019055612246565b9091508061235b575b156123295782903861223f565b828461234357637e27328960e01b60005260045260246000fd5b63177e802f60e01b6000523360045260245260446000fd5b50338414801561238b575b8061231c57506000838152600460205260409020546001600160a01b0316331461231c565b50600084815260056020908152604080832033845290915290205460ff16612366565b633250574960e11b600052600060045260246000fd5b156123cb57565b60405162461bcd60e51b815260206004820152602860248201527f52657761726420646973747269627574696f6e206973206e6f7420617661696c60448201526718589b19481e595d60c21b6064820152608490fd5b600a546040516331a9108f60e11b8152600481018390526001600160a01b039091169190602081602481865afa600091816124e4575b5061246457505050600090565b306001600160a01b03909116036124dd57600090602460405180948193636be9a6f160e01b835260048301525afa908115610525576000906000926124b5575b50816124ae575090565b9050151590565b90506124cc91503d806000833e6105a28183611b5e565b5050505050945092505050386124a4565b5050600090565b9091506020813d602011612518575b8161250060209383611b5e565b810103126101a85761251190611f51565b9038612457565b3d91506124f3565b600b5462278d0081018091116109e85761253c904210156123c4565b60095460405163403ac10d60e01b81529061028090829060049082906001600160a01b03165afa90811561052557600091612894575b50600854604051631f16653b60e01b81526001600160a01b039091169190602081600481865afa90811561052557600091612862575b50801561281357600060249360405194858092632e76c56d60e21b82528560048301525afa80156105255760008080928196829083926127e1575b5060005b600381106125fe5750505050505050505042600b55565b600a811015611d5957600581901b880151516001600160a01b031680612628575b506001016125e7565b600a5460405187518c926001600160a01b031691908190612650816020808501908e01611aea565b8101602081016c2028526577617264204e46542960981b90520360200160121981018252600d016126819082611b5e565b604051631bd118d360e21b81526004810185905261014060248201529283918291906126b161014484018c611b0d565b8381036003190160448501526126c691611b0d565b828103600319810160648501526016825275697066733a2f2f7265776172645f6d6574616461746160501b6020830152608484018f9052600060a4850152603c0160c4840152612719906040018d611b0d565b8281036003190160e484015261272e91611b0d565b818103600319016101048301526127459088611b0d565b8181036003190161012483015261275c9089611b0d565b03815a602094600091f1908115610525576000916127af575b506040600193927fe084fd9ba3c06cae1c6e5934df30fd6a03bcd0b3269833257a95914325369c769282519182526020820152a19061261f565b906020823d82116127d9575b816127c860209383611b5e565b81010312610c415750516040612775565b3d91506127bb565b9450505090506127fc9294503d8091833e61127f8183611b5e565b5095509a98935096945094505091929396386125e3565b60405162461bcd60e51b815260206004820152602160248201527f4e6f2070726f647563747320617661696c61626c6520666f72207265776172646044820152607360f81b6064820152608490fd5b906020823d60201161288c575b8161287c60209383611b5e565b81010312610c41575051386125a8565b3d915061286f565b6102803d8111612979575b6128a98183611b5e565b810190610280818303126129615781601f82011215612961576040519261014084018481106001600160401b0382111761296557604052839261028083019281841161296157935b83851061290357505050505038612572565b60408583031261296157604051604081018181106001600160401b0382111761294d5791602091604093845261293888611f51565b815282880151838201528152019401936128f1565b634e487b7160e01b85526041600452602485fd5b8280fd5b634e487b7160e01b82526041600452602482fd5b503d61289f565b929161298d818386612208565b813b61299a575b50505050565b604051630a85bd0160e11b81523360048201526001600160a01b03948516602482015260448101919091526080606482015292169190602090829081906129e5906084830190611b0d565b03816000865af18091600091612a5c575b5090612a275750612a05612193565b80519081612a225782633250574960e11b60005260045260246000fd5b602001fd5b6001600160e01b03191663757a42ff60e11b01612a48575038808080612994565b633250574960e11b60005260045260246000fd5b6020813d602011612a9b575b81612a7560209383611b5e565b81010312612a975751906001600160e01b031982168203610c415750386129f6565b5080fd5b3d9150612a68565b612aac81612b87565b50600052600660205260406000206040519060008154918260011c92600181168015612b7d575b60208510811461077d57848652859392918115612b5b5750600114612b14575b50612b0092500382611b5e565b6000604051612b10602082611b5e565b5290565b90506000929192526020600020906000915b818310612b3f575050906020612b009282010138612af3565b6020919350806001915483858801015201910190918392612b26565b905060209250612b0094915060ff191682840152151560051b82010138612af3565b93607f1693612ad3565b6000818152600260205260409020546001600160a01b0316908115612baa575090565b637e27328960e01b60005260045260246000fd5b6007546001600160a01b03163303612bd257565b63118cdaa760e01b6000523360045260246000fdfea2646970667358221220195841781aa4822e275c6c00ed6ae9139fda4220a1db4c855b363dc9b6d8c02864736f6c634300081b0033",
  "linkReferences": {},
  "deployedLinkReferences": {}
}