{
  "_format": "hh-sol-artifact-1",
  "contractName": "CoffeeMarketplace",
  "sourceName": "contracts/CoffeeMarketplace.sol",
  "abi": [
    {
      "inputs": [
        {
          "internalType": "address",
          "name": "_productContractAddress",
          "type": "address"
        },
        {
          "internalType": "address",
          "name": "_leaderboardContractAddress",
          "type": "address"
        },
        {
          "internalType": "address",
          "name": "_nftContractAddress",
          "type": "address"
        }
      ],
      "stateMutability": "nonpayable",
      "type": "constructor"
    },
    {
      "inputs": [
        {
          "internalType": "address",
          "name": "sender",
          "type": "address"
        },
        {
          "internalType": "uint256",
          "name": "tokenId",
          "type": "uint256"
        },
        {
          "internalType": "address",
          "name": "owner",
          "type": "address"
        }
      ],
      "name": "ERC721IncorrectOwner",
      "type": "error"
    },
    {
      "inputs": [
        {
          "internalType": "address",
          "name": "operator",
          "type": "address"
        },
        {
          "internalType": "uint256",
          "name": "tokenId",
          "type": "uint256"
        }
      ],
      "name": "ERC721InsufficientApproval",
      "type": "error"
    },
    {
      "inputs": [
        {
          "internalType": "address",
          "name": "approver",
          "type": "address"
        }
      ],
      "name": "ERC721InvalidApprover",
      "type": "error"
    },
    {
      "inputs": [
        {
          "internalType": "address",
          "name": "operator",
          "type": "address"
        }
      ],
      "name": "ERC721InvalidOperator",
      "type": "error"
    },
    {
      "inputs": [
        {
          "internalType": "address",
          "name": "owner",
          "type": "address"
        }
      ],
      "name": "ERC721InvalidOwner",
      "type": "error"
    },
    {
      "inputs": [
        {
          "internalType": "address",
          "name": "receiver",
          "type": "address"
        }
      ],
      "name": "ERC721InvalidReceiver",
      "type": "error"
    },
    {
      "inputs": [
        {
          "internalType": "address",
          "name": "sender",
          "type": "address"
        }
      ],
      "name": "ERC721InvalidSender",
      "type": "error"
    },
    {
      "inputs": [
        {
          "internalType": "uint256",
          "name": "tokenId",
          "type": "uint256"
        }
      ],
      "name": "ERC721NonexistentToken",
      "type": "error"
    },
    {
      "inputs": [
        {
          "internalType": "address",
          "name": "owner",
          "type": "address"
        }
      ],
      "name": "OwnableInvalidOwner",
      "type": "error"
    },
    {
      "inputs": [
        {
          "internalType": "address",
          "name": "account",
          "type": "address"
        }
      ],
      "name": "OwnableUnauthorizedAccount",
      "type": "error"
    },
    {
      "anonymous": false,
      "inputs": [
        {
          "indexed": true,
          "internalType": "address",
          "name": "owner",
          "type": "address"
        },
        {
          "indexed": true,
          "internalType": "address",
          "name": "approved",
          "type": "address"
        },
        {
          "indexed": true,
          "internalType": "uint256",
          "name": "tokenId",
          "type": "uint256"
        }
      ],
      "name": "Approval",
      "type": "event"
    },
    {
      "anonymous": false,
      "inputs": [
        {
          "indexed": true,
          "internalType": "address",
          "name": "owner",
          "type": "address"
        },
        {
          "indexed": true,
          "internalType": "address",
          "name": "operator",
          "type": "address"
        },
        {
          "indexed": false,
          "internalType": "bool",
          "name": "approved",
          "type": "bool"
        }
      ],
      "name": "ApprovalForAll",
      "type": "event"
    },
    {
      "anonymous": false,
      "inputs": [
        {
          "indexed": false,
          "internalType": "uint256",
          "name": "_fromTokenId",
          "type": "uint256"
        },
        {
          "indexed": false,
          "internalType": "uint256",
          "name": "_toTokenId",
          "type": "uint256"
        }
      ],
      "name": "BatchMetadataUpdate",
      "type": "event"
    },
    {
      "anonymous": false,
      "inputs": [
        {
          "indexed": false,
          "internalType": "uint256",
          "name": "productId",
          "type": "uint256"
        },
        {
          "indexed": true,
          "internalType": "address",
          "name": "roaster",
          "type": "address"
        },
        {
          "indexed": false,
          "internalType": "string",
          "name": "name",
          "type": "string"
        },
        {
          "indexed": false,
          "internalType": "uint256",
          "name": "price",
          "type": "uint256"
        },
        {
          "indexed": false,
          "internalType": "uint256",
          "name": "quantity",
          "type": "uint256"
        }
      ],
      "name": "ListingAdded",
      "type": "event"
    },
    {
      "anonymous": false,
      "inputs": [
        {
          "indexed": false,
          "internalType": "uint256",
          "name": "_tokenId",
          "type": "uint256"
        }
      ],
      "name": "MetadataUpdate",
      "type": "event"
    },
    {
      "anonymous": false,
      "inputs": [
        {
          "indexed": false,
          "internalType": "address",
          "name": "customer",
          "type": "address"
        },
        {
          "indexed": false,
          "internalType": "uint256",
          "name": "tokenId",
          "type": "uint256"
        }
      ],
      "name": "MonthlyRewardDistributed",
      "type": "event"
    },
    {
      "anonymous": false,
      "inputs": [
        {
          "indexed": true,
          "internalType": "uint256",
          "name": "tokenId",
          "type": "uint256"
        },
        {
          "indexed": true,
          "internalType": "address",
          "name": "owner",
          "type": "address"
        },
        {
          "indexed": false,
          "internalType": "string",
          "name": "name",
          "type": "string"
        },
        {
          "indexed": false,
          "internalType": "string",
          "name": "ipfsHash",
          "type": "string"
        },
        {
          "indexed": false,
          "internalType": "uint256",
          "name": "price",
          "type": "uint256"
        }
      ],
      "name": "NFTMinted",
      "type": "event"
    },
    {
      "anonymous": false,
      "inputs": [
        {
          "indexed": true,
          "internalType": "uint256",
          "name": "productId",
          "type": "uint256"
        },
        {
          "indexed": true,
          "internalType": "uint256",
          "name": "tokenId",
          "type": "uint256"
        },
        {
          "indexed": true,
          "internalType": "address",
          "name": "buyer",
          "type": "address"
        },
        {
          "indexed": false,
          "internalType": "uint256",
          "name": "price",
          "type": "uint256"
        }
      ],
      "name": "NFTPurchased",
      "type": "event"
    },
    {
      "anonymous": false,
      "inputs": [
        {
          "indexed": true,
          "internalType": "uint256",
          "name": "tokenId",
          "type": "uint256"
        },
        {
          "indexed": true,
          "internalType": "address",
          "name": "from",
          "type": "address"
        },
        {
          "indexed": true,
          "internalType": "address",
          "name": "to",
          "type": "address"
        },
        {
          "indexed": false,
          "internalType": "uint256",
          "name": "price",
          "type": "uint256"
        }
      ],
      "name": "NFTTransferred",
      "type": "event"
    },
    {
      "anonymous": false,
      "inputs": [
        {
          "indexed": true,
          "internalType": "address",
          "name": "previousOwner",
          "type": "address"
        },
        {
          "indexed": true,
          "internalType": "address",
          "name": "newOwner",
          "type": "address"
        }
      ],
      "name": "OwnershipTransferred",
      "type": "event"
    },
    {
      "anonymous": false,
      "inputs": [
        {
          "indexed": true,
          "internalType": "address",
          "name": "from",
          "type": "address"
        },
        {
          "indexed": true,
          "internalType": "address",
          "name": "to",
          "type": "address"
        },
        {
          "indexed": true,
          "internalType": "uint256",
          "name": "tokenId",
          "type": "uint256"
        }
      ],
      "name": "Transfer",
      "type": "event"
    },
    {
      "inputs": [
        {
          "internalType": "string",
          "name": "_name",
          "type": "string"
        },
        {
          "internalType": "string",
          "name": "_description",
          "type": "string"
        },
        {
          "internalType": "string",
          "name": "_ipfsHash",
          "type": "string"
        },
        {
          "internalType": "uint256",
          "name": "_price",
          "type": "uint256"
        },
        {
          "internalType": "uint256",
          "name": "_quantity",
          "type": "uint256"
        },
        {
          "internalType": "string",
          "name": "_origin",
          "type": "string"
        },
        {
          "internalType": "string",
          "name": "_roastLevel",
          "type": "string"
        },
        {
          "internalType": "string",
          "name": "_beanType",
          "type": "string"
        },
        {
          "internalType": "string",
          "name": "_processMethod",
          "type": "string"
        }
      ],
      "name": "addRoasterListing",
      "outputs": [],
      "stateMutability": "nonpayable",
      "type": "function"
    },
    {
      "inputs": [
        {
          "internalType": "address",
          "name": "to",
          "type": "address"
        },
        {
          "internalType": "uint256",
          "name": "tokenId",
          "type": "uint256"
        }
      ],
      "name": "approve",
      "outputs": [],
      "stateMutability": "nonpayable",
      "type": "function"
    },
    {
      "inputs": [
        {
          "internalType": "address",
          "name": "owner",
          "type": "address"
        }
      ],
      "name": "balanceOf",
      "outputs": [
        {
          "internalType": "uint256",
          "name": "",
          "type": "uint256"
        }
      ],
      "stateMutability": "view",
      "type": "function"
    },
    {
      "inputs": [
        {
          "internalType": "uint256",
          "name": "productId",
          "type": "uint256"
        },
        {
          "internalType": "uint256[]",
          "name": "tokenIds",
          "type": "uint256[]"
        }
      ],
      "name": "bulkPurchaseNFTs",
      "outputs": [],
      "stateMutability": "payable",
      "type": "function"
    },
    {
      "inputs": [
        {
          "internalType": "bytes",
          "name": "",
          "type": "bytes"
        }
      ],
      "name": "checkUpkeep",
      "outputs": [
        {
          "internalType": "bool",
          "name": "upkeepNeeded",
          "type": "bool"
        },
        {
          "internalType": "bytes",
          "name": "",
          "type": "bytes"
        }
      ],
      "stateMutability": "view",
      "type": "function"
    },
    {
      "inputs": [],
      "name": "distributeMonthlyReward",
      "outputs": [],
      "stateMutability": "nonpayable",
      "type": "function"
    },
    {
      "inputs": [],
      "name": "getAllAvailableListings",
      "outputs": [
        {
          "internalType": "uint256[]",
          "name": "productIds",
          "type": "uint256[]"
        },
        {
          "internalType": "string[]",
          "name": "names",
          "type": "string[]"
        },
        {
          "internalType": "string[]",
          "name": "descriptions",
          "type": "string[]"
        },
        {
          "internalType": "string[]",
          "name": "ipfsHashes",
          "type": "string[]"
        },
        {
          "internalType": "uint256[]",
          "name": "prices",
          "type": "uint256[]"
        },
        {
          "internalType": "uint256[]",
          "name": "quantities",
          "type": "uint256[]"
        },
        {
          "internalType": "string[]",
          "name": "origins",
          "type": "string[]"
        },
        {
          "internalType": "string[]",
          "name": "roastLevels",
          "type": "string[]"
        },
        {
          "internalType": "string[]",
          "name": "beanTypes",
          "type": "string[]"
        },
        {
          "internalType": "string[]",
          "name": "processMethods",
          "type": "string[]"
        },
        {
          "internalType": "uint256[]",
          "name": "roastDates",
          "type": "uint256[]"
        }
      ],
      "stateMutability": "view",
      "type": "function"
    },
    {
      "inputs": [
        {
          "internalType": "uint256",
          "name": "tokenId",
          "type": "uint256"
        }
      ],
      "name": "getApproved",
      "outputs": [
        {
          "internalType": "address",
          "name": "",
          "type": "address"
        }
      ],
      "stateMutability": "view",
      "type": "function"
    },
    {
      "inputs": [
        {
          "internalType": "uint256",
          "name": "_productId",
          "type": "uint256"
        }
      ],
      "name": "getListing",
      "outputs": [
        {
          "internalType": "string",
          "name": "name",
          "type": "string"
        },
        {
          "internalType": "string",
          "name": "description",
          "type": "string"
        },
        {
          "internalType": "string",
          "name": "ipfsHash",
          "type": "string"
        },
        {
          "internalType": "uint256",
          "name": "price",
          "type": "uint256"
        },
        {
          "internalType": "uint256",
          "name": "quantity",
          "type": "uint256"
        },
        {
          "internalType": "uint256[]",
          "name": "nftIds",
          "type": "uint256[]"
        },
        {
          "internalType": "bool",
          "name": "available",
          "type": "bool"
        },
        {
          "internalType": "string",
          "name": "origin",
          "type": "string"
        },
        {
          "internalType": "string",
          "name": "roastLevel",
          "type": "string"
        },
        {
          "internalType": "string",
          "name": "beanType",
          "type": "string"
        },
        {
          "internalType": "string",
          "name": "processMethod",
          "type": "string"
        },
        {
          "internalType": "uint256",
          "name": "roastDate",
          "type": "uint256"
        }
      ],
      "stateMutability": "view",
      "type": "function"
    },
    {
      "inputs": [
        {
          "internalType": "uint256",
          "name": "tokenId",
          "type": "uint256"
        }
      ],
      "name": "getNFTPrice",
      "outputs": [
        {
          "internalType": "uint256",
          "name": "",
          "type": "uint256"
        }
      ],
      "stateMutability": "view",
      "type": "function"
    },
    {
      "inputs": [
        {
          "internalType": "address",
          "name": "owner",
          "type": "address"
        },
        {
          "internalType": "address",
          "name": "operator",
          "type": "address"
        }
      ],
      "name": "isApprovedForAll",
      "outputs": [
        {
          "internalType": "bool",
          "name": "",
          "type": "bool"
        }
      ],
      "stateMutability": "view",
      "type": "function"
    },
    {
      "inputs": [
        {
          "internalType": "uint256",
          "name": "tokenId",
          "type": "uint256"
        }
      ],
      "name": "isNFTAvailableForPurchase",
      "outputs": [
        {
          "internalType": "bool",
          "name": "",
          "type": "bool"
        }
      ],
      "stateMutability": "view",
      "type": "function"
    },
    {
      "inputs": [],
      "name": "lastRewardTime",
      "outputs": [
        {
          "internalType": "uint256",
          "name": "",
          "type": "uint256"
        }
      ],
      "stateMutability": "view",
      "type": "function"
    },
    {
      "inputs": [],
      "name": "leaderboardContract",
      "outputs": [
        {
          "internalType": "contract Leaderboard",
          "name": "",
          "type": "address"
        }
      ],
      "stateMutability": "view",
      "type": "function"
    },
    {
      "inputs": [],
      "name": "name",
      "outputs": [
        {
          "internalType": "string",
          "name": "",
          "type": "string"
        }
      ],
      "stateMutability": "view",
      "type": "function"
    },
    {
      "inputs": [],
      "name": "nftContract",
      "outputs": [
        {
          "internalType": "contract CoffeeNFT",
          "name": "",
          "type": "address"
        }
      ],
      "stateMutability": "view",
      "type": "function"
    },
    {
      "inputs": [
        {
          "internalType": "address",
          "name": "",
          "type": "address"
        },
        {
          "internalType": "address",
          "name": "",
          "type": "address"
        },
        {
          "internalType": "uint256",
          "name": "",
          "type": "uint256"
        },
        {
          "internalType": "bytes",
          "name": "",
          "type": "bytes"
        }
      ],
      "name": "onERC721Received",
      "outputs": [
        {
          "internalType": "bytes4",
          "name": "",
          "type": "bytes4"
        }
      ],
      "stateMutability": "nonpayable",
      "type": "function"
    },
    {
      "inputs": [],
      "name": "owner",
      "outputs": [
        {
          "internalType": "address",
          "name": "",
          "type": "address"
        }
      ],
      "stateMutability": "view",
      "type": "function"
    },
    {
      "inputs": [
        {
          "internalType": "uint256",
          "name": "tokenId",
          "type": "uint256"
        }
      ],
      "name": "ownerOf",
      "outputs": [
        {
          "internalType": "address",
          "name": "",
          "type": "address"
        }
      ],
      "stateMutability": "view",
      "type": "function"
    },
    {
      "inputs": [
        {
          "internalType": "bytes",
          "name": "",
          "type": "bytes"
        }
      ],
      "name": "performUpkeep",
      "outputs": [],
      "stateMutability": "nonpayable",
      "type": "function"
    },
    {
      "inputs": [],
      "name": "productContract",
      "outputs": [
        {
          "internalType": "contract Product",
          "name": "",
          "type": "address"
        }
      ],
      "stateMutability": "view",
      "type": "function"
    },
    {
      "inputs": [
        {
          "internalType": "uint256",
          "name": "",
          "type": "uint256"
        },
        {
          "internalType": "uint256",
          "name": "",
          "type": "uint256"
        }
      ],
      "name": "productTokens",
      "outputs": [
        {
          "internalType": "uint256",
          "name": "",
          "type": "uint256"
        }
      ],
      "stateMutability": "view",
      "type": "function"
    },
    {
      "inputs": [
        {
          "internalType": "uint256",
          "name": "productId",
          "type": "uint256"
        },
        {
          "internalType": "uint256",
          "name": "tokenId",
          "type": "uint256"
        }
      ],
      "name": "purchaseNFT",
      "outputs": [],
      "stateMutability": "payable",
      "type": "function"
    },
    {
      "inputs": [],
      "name": "renounceOwnership",
      "outputs": [],
      "stateMutability": "nonpayable",
      "type": "function"
    },
    {
      "inputs": [
        {
          "internalType": "address",
          "name": "from",
          "type": "address"
        },
        {
          "internalType": "address",
          "name": "to",
          "type": "address"
        },
        {
          "internalType": "uint256",
          "name": "tokenId",
          "type": "uint256"
        }
      ],
      "name": "safeTransferFrom",
      "outputs": [],
      "stateMutability": "nonpayable",
      "type": "function"
    },
    {
      "inputs": [
        {
          "internalType": "address",
          "name": "from",
          "type": "address"
        },
        {
          "internalType": "address",
          "name": "to",
          "type": "address"
        },
        {
          "internalType": "uint256",
          "name": "tokenId",
          "type": "uint256"
        },
        {
          "internalType": "bytes",
          "name": "data",
          "type": "bytes"
        }
      ],
      "name": "safeTransferFrom",
      "outputs": [],
      "stateMutability": "nonpayable",
      "type": "function"
    },
    {
      "inputs": [
        {
          "internalType": "address",
          "name": "operator",
          "type": "address"
        },
        {
          "internalType": "bool",
          "name": "approved",
          "type": "bool"
        }
      ],
      "name": "setApprovalForAll",
      "outputs": [],
      "stateMutability": "nonpayable",
      "type": "function"
    },
    {
      "inputs": [
        {
          "internalType": "bytes4",
          "name": "interfaceId",
          "type": "bytes4"
        }
      ],
      "name": "supportsInterface",
      "outputs": [
        {
          "internalType": "bool",
          "name": "",
          "type": "bool"
        }
      ],
      "stateMutability": "view",
      "type": "function"
    },
    {
      "inputs": [],
      "name": "symbol",
      "outputs": [
        {
          "internalType": "string",
          "name": "",
          "type": "string"
        }
      ],
      "stateMutability": "view",
      "type": "function"
    },
    {
      "inputs": [
        {
          "internalType": "uint256",
          "name": "tokenId",
          "type": "uint256"
        }
      ],
      "name": "tokenURI",
      "outputs": [
        {
          "internalType": "string",
          "name": "",
          "type": "string"
        }
      ],
      "stateMutability": "view",
      "type": "function"
    },
    {
      "inputs": [
        {
          "internalType": "address",
          "name": "from",
          "type": "address"
        },
        {
          "internalType": "address",
          "name": "to",
          "type": "address"
        },
        {
          "internalType": "uint256",
          "name": "tokenId",
          "type": "uint256"
        }
      ],
      "name": "transferFrom",
      "outputs": [],
      "stateMutability": "nonpayable",
      "type": "function"
    },
    {
      "inputs": [
        {
          "internalType": "uint256",
          "name": "tokenId",
          "type": "uint256"
        },
        {
          "internalType": "address",
          "name": "to",
          "type": "address"
        },
        {
          "internalType": "uint256",
          "name": "price",
          "type": "uint256"
        }
      ],
      "name": "transferNFT",
      "outputs": [],
      "stateMutability": "payable",
      "type": "function"
    },
    {
      "inputs": [
        {
          "internalType": "address",
          "name": "newOwner",
          "type": "address"
        }
      ],
      "name": "transferOwnership",
      "outputs": [],
      "stateMutability": "nonpayable",
      "type": "function"
    }
  ],
  "bytecode": "0x6080604052346104fb5761372e6060813803918261001c81610500565b9384928339810103126104fb5761003281610525565b61004a604061004360208501610525565b9301610525565b6100546040610500565b92600984526810dbd999995953919560ba1b60208501526100756040610500565b6006815265434f4646454560d01b6020820152845190946001600160401b0382116103fb5760005490600182811c921680156104f1575b60208310146103db5781601f849311610482575b50602090601f831160011461041c57600092610411575b50508160011b916000199060031b1c1916176000555b83516001600160401b0381116103fb57600154600181811c911680156103f1575b60208210146103db57601f8111610376575b50602094601f821160011461030f57948192939495600092610304575b50508160011b916000199060031b1c1916176001555b33156102ee5760078054336001600160a01b0319821681179092556040519491906001600160a01b03167f8be0079c531659141344cd1fd0a4f28419497f9722a3daafe3b4186f6b6457e0600080a36001600160a01b03169283156102ac57506001600160a01b031690811561025b576001600160a01b03169182156102165760018060a01b0319600854161760085560018060a01b0319600954161760095560018060a01b0319600a541617600a5542600b556040516131f4908161053a8239f35b60405162461bcd60e51b815260206004820152601c60248201527f496e76616c6964204e465420636f6e74726163742061646472657373000000006044820152606490fd5b60405162461bcd60e51b8152602060048201526024808201527f496e76616c6964204c6561646572626f61726420636f6e7472616374206164646044820152637265737360e01b6064820152608490fd5b62461bcd60e51b815260206004820181905260248201527f496e76616c69642050726f6475637420636f6e747261637420616464726573736044820152606490fd5b631e4fbdf760e01b600052600060045260246000fd5b01519050388061013d565b601f198216956001600052806000209160005b88811061035e57508360019596979810610345575b505050811b01600155610153565b015160001960f88460031b161c19169055388080610337565b91926020600181928685015181550194019201610322565b60016000527fb10e2d527612073b26eecdfd717e6a320cf44b4afac2b0732d9fcbe2b7fa0cf6601f830160051c810191602084106103d1575b601f0160051c01905b8181106103c55750610120565b600081556001016103b8565b90915081906103af565b634e487b7160e01b600052602260045260246000fd5b90607f169061010e565b634e487b7160e01b600052604160045260246000fd5b0151905038806100d7565b60008080528281209350601f198516905b81811061046a5750908460019594939210610451575b505050811b016000556100ed565b015160001960f88460031b161c19169055388080610443565b9293602060018192878601518155019501930161042d565b600080529091507f290decd9548b62a8d60345a988386fc84ba6bc95484008f6362f93160ef3e563601f840160051c810191602085106104e7575b90601f859493920160051c01905b8181106104d857506100c0565b600081558493506001016104cb565b90915081906104bd565b91607f16916100ac565b600080fd5b6040519190601f01601f191682016001600160401b038111838210176103fb57604052565b51906001600160a01b03821682036104fb5756fe61038080604052600436101561001457600080fd5b60003560e01c90816301ffc9a714611f585750806306fdde0314611e9d578063081812fc14611e5f578063095ea7b314611d705780630fa70537146117b0578063107a274a146116695780631209fe0d1461126a578063150b7a021461124757806323b872dd146112305780632a28d4df1461120757806342842e0e146111dd5780634585e33b146111a957806354db8f22146111815780635635319d146111685780635bbc1a0414610f4d5780636352211e14610f1d5780636e04ff0d14610ecb57806370a0823114610e75578063715018a614610e185780638da5cb5b14610def5780639231cf7414610dd15780639297617914610cd057806395d89b4114610bd8578063a22cb46514610b37578063ad4451a31461088f578063b88d4fde14610873578063c87b56dd14610840578063d56d229d14610817578063dc242737146107d7578063e985e9c51461077c578063f2fde38b146106f2578063f335d009146101b95763ff0224d31461018b57600080fd5b346101b45760003660031901126101b4576009546040516001600160a01b039091168152602090f35b600080fd5b346101b45760003660031901126101b45760018060a01b036008541660c052604051631f16653b60e01b815260208160048160c0515afa9081156105ff576000916106bd575b506000805b828110610621575080610219610297926122bb565b6103405261022681613114565b6103605261023381613114565b6102205261024081613114565b6102405261024d816122bb565b6102605261025a816122bb565b6102805261026781613114565b6102a05261027481613114565b6102c05261028181613114565b6102e05261028e81613114565b610300526122bb565b61032052600060e05260e051610120525b80610120511061039b5760405161016081528061039761038561037361036161035061033f61032e61031d61030c6102fb6102ea6101608c01610340516120e2565b8b810360208d015261036051612262565b8a810360408c015261022051612262565b89810360608b015261024051612262565b88810360808a0152610260516120e2565b87810360a0890152610280516120e2565b86810360c08801526102a051612262565b85810360e08701526102c051612262565b8481036101008601526102e051612262565b83810361012085015261030051612262565b828103610140840152610320516120e2565b0390f35b60016101205101610120511161060b5760405161020052632e76c56d60e21b610200515260016101205101600461020051015260006102005160246102005160c0515afa6101c0526101c051156105ff57600080816080528182918361014052838060a052806101e052806101a05280610100526101c051610596575b610140518061058d575b61043c575b505050505060016101205101610120526102a8565b6001610120510161045260e051610340516122ed565b5261046260e051610360516122ed565b5261047260e051610360516122ed565b5061048260e051610220516122ed565b5261049260e051610220516122ed565b506080516104a560e051610240516122ed565b526104b560e051610240516122ed565b506104c560e051610260516122ed565b526104d560e051610280516122ed565b526104e560e0516102a0516122ed565b526104f560e0516102a0516122ed565b5060a05161050860e0516102c0516122ed565b5261051860e0516102c0516122ed565b506101e05161052c60e0516102e0516122ed565b5261053c60e0516102e0516122ed565b506101a05161055060e051610300516122ed565b5261056060e051610300516122ed565b506101005161057460e051610320516122ed565b5261058060e051613105565b60e0528180808080610427565b50831515610422565b925050506105c291503d8091610200513e6105b48161020051612051565b610200510161020051612350565b6101808190526101608590526080999099526101409490945260a0919091526101e0526101a0919091526101009490945250919391929091610418565b6040513d6000823e3d90fd5b634e487b7160e01b600052601160045260246000fd5b6001810180821161060b5760405190632e76c56d60e21b8252600482015260008160248160c0515afa9081156105ff57600090819261068e575b5081610684575b50610670575b600101610204565b9061067c600191613105565b919050610668565b9050151584610662565b906106ab92503d8091833e6106a38183612051565b810190612350565b5050505050955050925050508561065b565b906020823d6020116106ea575b816106d760209383612051565b810103126106e7575051816101ff565b80fd5b3d91506106ca565b346101b45760203660031901126101b45761070b612025565b610713613195565b6001600160a01b0316801561076657600780546001600160a01b0319811683179091556001600160a01b03167f8be0079c531659141344cd1fd0a4f28419497f9722a3daafe3b4186f6b6457e0600080a3005b631e4fbdf760e01b600052600060045260246000fd5b346101b45760403660031901126101b457610795612025565b61079d61203b565b9060018060a01b0316600052600560205260406000209060018060a01b0316600052602052602060ff604060002054166040519015158152f35b346101b4576107e53661221e565b90600052600c602052604060002080548210156101b45760209161080891612234565b90549060031b1c604051908152f35b346101b45760003660031901126101b457600a546040516001600160a01b039091168152602090f35b346101b45760203660031901126101b45761039761085f600435613021565b604051918291602083526020830190612000565b346101b45761088d6108843661212d565b92919091612efe565b005b6108983661221e565b600a546040516331a9108f60e11b8152600481018390526001600160a01b0390911690602081602481855afa9081156105ff57600091610af2575b506024916000916108ee906001600160a01b0316301461252f565b60405192838092636be9a6f160e01b82528660048301525afa9081156105ff5761092f91600091600091610abd575b5061092790612682565b3410156126ce565b600854604051631232338760e21b81526004810184905290602090829060249082906001600160a01b03165afa9081156105ff57600091610a77575b50600080808061099a9460018060a01b03166109888115156124e3565b34905af1610994612711565b50612741565b600a546001600160a01b0316803b156101b457604051632142170760e11b815230600482015233602482015260448101839052906000908290606490829084905af180156105ff57610a66575b506008546001600160a01b0316803b156101b45760008091602460405180948193639cef5ca960e01b83528860048401525af180156105ff57610a55575b50604051913483527f5228aeaf7727cc737b9ae986be18ef1ab61f0976f5513ab4e6160454eaf082b360203394a4005b6000610a6091612051565b82610a25565b6000610a7191612051565b826109e7565b90506020813d602011610ab5575b81610a9260209383612051565b810103126101b4576000808080610aab61099a956124cf565b945050505061096b565b3d9150610a85565b6109279250610adf91503d806000833e610ad78183612051565b81019061257b565b505050505095945092505050919061091d565b90506020813d602011610b2f575b81610b0d60209383612051565b810103126101b4576024916108ee610b266000936124cf565b925050916108d3565b3d9150610b00565b346101b45760403660031901126101b457610b50612025565b602435908115158092036101b4576001600160a01b0316908115610bc357336000526005602052604060002082600052602052604060002060ff1981541660ff83161790556040519081527f17307eab39ab6107e8899845ad3d59bd9653f200f220920489ca2b5937696c3160203392a3005b50630b61174360e31b60005260045260246000fd5b346101b45760003660031901126101b45760405160006001548060011c90600181168015610cc6575b602083108114610cb257828552908115610c8e5750600114610c2e575b6103978361085f81850382612051565b91905060016000527fb10e2d527612073b26eecdfd717e6a320cf44b4afac2b0732d9fcbe2b7fa0cf6916000905b808210610c745750909150810160200161085f610c1e565b919260018160209254838588010152019101909291610c5c565b60ff191660208086019190915291151560051b8401909101915061085f9050610c1e565b634e487b7160e01b84526022600452602484fd5b91607f1691610c01565b346101b45760203660031901126101b457600a546040516331a9108f60e11b8152600480359082018190526001600160a01b0390921691602082602481865afa9182156105ff57600092610d91575b50600091610d37906001600160a01b0316301461252f565b602460405180948193636be9a6f160e01b835260048301525afa80156105ff57602091600091610d6b575b50604051908152f35b610d8091503d806000833e610ad78183612051565b505050505050935050505082610d62565b91506020823d602011610dc9575b81610dac60209383612051565b810103126101b457610d37610dc26000936124cf565b9250610d1f565b3d9150610d9f565b346101b45760003660031901126101b4576020600b54604051908152f35b346101b45760003660031901126101b4576007546040516001600160a01b039091168152602090f35b346101b45760003660031901126101b457610e31613195565b600780546001600160a01b031981169091556000906001600160a01b03167f8be0079c531659141344cd1fd0a4f28419497f9722a3daafe3b4186f6b6457e08280a3005b346101b45760203660031901126101b4576001600160a01b03610e96612025565b168015610eb55760005260036020526020604060002054604051908152f35b6322718ad960e21b600052600060045260246000fd5b346101b457610ed9366121cf565b5050600b5462278d00810180911161060b5760405190610efa602083612051565b600082526103976040519283924210158352604060208401526040830190612000565b346101b45760203660031901126101b4576020610f3b60043561315e565b6040516001600160a01b039091168152f35b60603660031901126101b4576024600435610f6661203b565b600a546040516331a9108f60e11b81526004810184905293604435939291602091869182906001600160a01b03165afa9384156105ff5760009461112c575b506001600160a01b031680151580611122575b156110dd573303611099578161106b575b600a546001600160a01b0316803b156101b457604051632142170760e11b81526001600160a01b038516600482015233602482015260448101839052906000908290606490829084905af180156105ff5761105a575b5060405191825233926001600160a01b0316917f6a64dcba95bf473fff7da0fdf74710d1178f99f72f94db03faaaa2850188adeb90602090a4005b600061106591612051565b8361101f565b611077823410156126ce565b6110946000808080346001600160a01b0389165af1610994612711565b610fc9565b606460405162461bcd60e51b815260206004820152602060248201527f4f6e6c792062757965722063616e20696e697469617465207472616e736665726044820152fd5b60405162461bcd60e51b815260206004820152601960248201527f496e76616c696420726563697069656e742061646472657373000000000000006044820152606490fd5b5030811415610fb8565b90936020823d602011611160575b8161114760209383612051565b810103126106e75750611159906124cf565b9284610fa5565b3d915061113a565b346101b45760003660031901126101b45761088d612a9e565b346101b45760203660031901126101b457602061119f60043561299f565b6040519015158152f35b346101b4576111b7366121cf565b5050600b5462278d00810180911161060b576111d590421015612942565b61088d612a9e565b346101b45761088d6111ee36612195565b90604051926111fe602085612051565b60008452612efe565b346101b45760003660031901126101b4576008546040516001600160a01b039091168152602090f35b346101b45761088d61124136612195565b91612786565b346101b4576112553661212d565b505050506020604051630a85bd0160e11b8152f35b60403660031901126101b4576024356004356001600160401b0382116101b457366023830112156101b4578160040135916112a483612116565b926112b26040519485612051565b8084526024602085019160051b830101913683116101b457602401905b8282106116595750505081511561161e57600854604051631232338760e21b81526004810183905260009391602090829060249082906001600160a01b03165afa9081156116135784916115d5575b5091926001600160a01b0390921691906113398315156124e3565b819360018060a01b03600a5416925b82518610156114555761135b86846122ed565b51604051906331a9108f60e11b82526004820152602081602481885afa80156105ff5760009061141b575b61139b91506001600160a01b0316301461252f565b6113a586846122ed565b5160405190636be9a6f160e01b82526004820152600081602481885afa80156105ff5760009182916113f0575b506113dc90612682565b810180911161060b57600190950194611348565b61140891506113dc923d8091833e610ad78183612051565b50505050509594509250505091906113d2565b6020823d821161144d575b8161143360209383612051565b810103126106e7575061144861139b916124cf565b611386565b3d9150611426565b60008080808861098861146a963410156126ce565b60005b825181101561158957600a546001600160a01b031661148c82856122ed565b5190803b156101b457604051632142170760e11b815230600482015233602482015260448101929092526000908290606490829084905af180156105ff57611578575b50600a546001600160a01b03169060006114e982866122ed565b51602460405180958193636be9a6f160e01b835260048301525afa80156105ff57600192600091611554575b5061152082866122ed565b51604051918252847f5228aeaf7727cc737b9ae986be18ef1ab61f0976f5513ab4e6160454eaf082b360203394a40161146d565b611567913d8091833e610ad78183612051565b505050505050935050505085611515565b600061158391612051565b836114cf565b506008546001600160a01b031690813b156101b457600091602483926040519485938492639cef5ca960e01b845260048401525af180156105ff576115ca57005b600061088d91612051565b90506020813d60201161160b575b816115f060209383612051565b8101031261160757611601906124cf565b8461131e565b8380fd5b3d91506115e3565b6040513d86823e3d90fd5b60405162461bcd60e51b8152602060048201526013602482015272139bc81d1bdad95b9cc81cdc1958da599a5959606a1b6044820152606490fd5b81358152602091820191016112cf565b346101b45760203660031901126101b457600854604051632e76c56d60e21b8152600480359082015290600090829060249082906001600160a01b03165afa80156105ff576000908192828384908586908792889489968a988b9a61177b575b506040519b8c9b6101808d526101808d016116e391612000565b8c810360208e01526116f491612000565b8b810360408d015261170591612000565b9160608b015260808a015288810360a08a0152611721916120e2565b90151560c088015286810360e088015261173a91612000565b85810361010087015261174c91612000565b84810361012086015261175e91612000565b83810361014085015261177091612000565b906101608301520390f35b9a995050505050505050505061179b92503d8091833e6106a38183612051565b999a999890979196929593949392908c6116c9565b346101b4576101203660031901126101b4576004356001600160401b0381116101b4576117e19036906004016120c4565b6024356001600160401b0381116101b4576118009036906004016120c4565b906044356001600160401b0381116101b4576118209036906004016120c4565b91606435926084359060a4356001600160401b0381116101b4576118489036906004016120c4565b60c4356001600160401b0381116101b4576118679036906004016120c4565b9160e4356001600160401b0381116101b4576118879036906004016120c4565b94610104356001600160401b0381116101b4576118a89036906004016120c4565b8815611d2c578515611cdb57875115611c9f57825115611c5a576004966118ce876122bb565b600854604051631f16653b60e01b8152999197916020918b919082906001600160a01b03165afa9889156105ff57600099611c26575b506001890180991161060b578860005b898110611a9657505060085460405163269fe6f160e11b81523360048201526101606024820152976001600160a01b03909116968896879691929161195d61016489018f612000565b8881036003190160448a015261197291612000565b87810360031901606489015261198791612000565b8d60848801528a60a48801526003198782030160c48801526119a8916120e2565b8581036003190160e48701526119bd91612000565b848103600319016101048601526119d391612000565b838103600319016101248501526119e991612000565b828103600319016101448401526119ff91612000565b03815a602094600091f180156105ff57611a64575b50611a517f2bdd1034b17e6ebad4865acc810494d30c833727fcbd3aab4021852260ee878893604051938452608060208501526080840190612000565b93604083015260608201528033930390a2005b6020813d602011611a8e575b81611a7d60209383612051565b810103126101b45750611a51611a14565b3d9150611a70565b600160a01b60019003600a54168d8d6040519485928392631bd118d360e21b84523060048501526024840161014090526101448401611ad491612000565b838103600319016044850152611aea908c612000565b838103600319016064850152611b00908d612000565b91608484015260a48301526003198282030160c4830152611b21908c612000565b8181036003190160e4830152611b379087612000565b81810360031901610104830152611b4e9088612000565b81810360031901610124830152611b659089612000565b03815a602094600091f19182156105ff57600092611bf3575b5081611b8a828b6122ed565b528a600052600c60205260406000209182549268010000000000000000841015611bdd5783611bbf9160018096018155612234565b819291549060031b91821b91600019901b1916179055018990611914565b634e487b7160e01b600052604160045260246000fd5b90916020823d8211611c1e575b81611c0d60209383612051565b810103126106e7575051908d611b7e565b3d9150611c00565b90986020823d602011611c52575b81611c4160209383612051565b810103126106e7575051978b611904565b3d9150611c34565b60405162461bcd60e51b815260206004820152601960248201527f496d616765205552492063616e6e6f7420626520656d707479000000000000006044820152606490fd5b60405162461bcd60e51b81526020600482015260146024820152734e616d652063616e6e6f7420626520656d70747960601b6044820152606490fd5b60405162461bcd60e51b815260206004820152602360248201527f5175616e74697479206d7573742062652067726561746572207468616e207a6560448201526239379760e91b6064820152608490fd5b606460405162461bcd60e51b815260206004820152602060248201527f5072696365206d7573742062652067726561746572207468616e207a65726f2e6044820152fd5b346101b45760403660031901126101b457611d89612025565b602435611d958161315e565b33151580611e4c575b80611e1e575b611e095781906001600160a01b0384811691167f8c5be1e5ebec7d5bd14f71427d1e84f3dd0314c0f7b2291e5b200ac8c7c3b925600080a4600090815260046020526040902080546001600160a01b0319166001600160a01b03909216919091179055005b63a9fbf51f60e01b6000523360045260246000fd5b506001600160a01b038116600090815260056020908152604080832033845290915290205460ff1615611da4565b506001600160a01b038116331415611d9e565b346101b45760203660031901126101b457600435611e7c8161315e565b506000526004602052602060018060a01b0360406000205416604051908152f35b346101b45760003660031901126101b457604051600080548060011c90600181168015611f4e575b602083108114610cb257828552908115610c8e5750600114611ef1576103978361085f81850382612051565b60008080527f290decd9548b62a8d60345a988386fc84ba6bc95484008f6362f93160ef3e563939250905b808210611f345750909150810160200161085f610c1e565b919260018160209254838588010152019101909291611f1c565b91607f1691611ec5565b346101b45760203660031901126101b4576004359063ffffffff60e01b82168092036101b457602091632483248360e11b8114908115611f9a575b5015158152f35b6380ac58cd60e01b811491508115611fcc575b8115611fbb575b5083611f93565b6301ffc9a760e01b14905083611fb4565b635b5e139f60e01b81149150611fad565b60005b838110611ff05750506000910152565b8181015183820152602001611fe0565b9060209161201981518092818552858086019101611fdd565b601f01601f1916010190565b600435906001600160a01b03821682036101b457565b602435906001600160a01b03821682036101b457565b90601f801991011681019081106001600160401b03821117611bdd57604052565b6001600160401b038111611bdd57601f01601f191660200190565b92919261209982612072565b916120a76040519384612051565b8294818452818301116101b4578281602093846000960137010152565b9080601f830112156101b4578160206120df9335910161208d565b90565b906020808351928381520192019060005b8181106121005750505090565b82518452602093840193909201916001016120f3565b6001600160401b038111611bdd5760051b60200190565b9060806003198301126101b4576004356001600160a01b03811681036101b457916024356001600160a01b03811681036101b4579160443591606435906001600160401b0382116101b457806023830112156101b4578160246120df9360040135910161208d565b60609060031901126101b4576004356001600160a01b03811681036101b457906024356001600160a01b03811681036101b4579060443590565b9060206003198301126101b4576004356001600160401b0381116101b457826023820112156101b4578060040135926001600160401b0384116101b457602484830101116101b4576024019190565b60409060031901126101b4576004359060243590565b805482101561224c5760005260206000200190600090565b634e487b7160e01b600052603260045260246000fd5b9080602083519182815201916020808360051b8301019401926000915b83831061228e57505050505090565b90919293946020806122ac600193601f198682030187528951612000565b9701930193019193929061227f565b906122c582612116565b6122d26040519182612051565b82815280926122e3601f1991612116565b0190602036910137565b805182101561224c5760209160051b010190565b81601f820112156101b457805161231781612072565b926123256040519485612051565b818452602082840101116101b4576120df9160208085019101611fdd565b519081151582036101b457565b9091610180828403126101b45781516001600160401b0381116101b45783612379918401612301565b9260208301516001600160401b0381116101b45781612399918501612301565b9260408101516001600160401b0381116101b457826123b9918301612301565b9260608201519260808301519260a08101516001600160401b0381116101b457810182601f820112156101b4578051906123f282612116565b916124006040519384612051565b80835260208084019160051b830101918583116101b457602001905b8282106124bf575050509261243360c08301612343565b9260e08301516001600160401b0381116101b45781612453918501612301565b926101008101516001600160401b0381116101b45782612474918301612301565b926101208201516001600160401b0381116101b45783612495918401612301565b926101408301516001600160401b0381116101b457610160916124b9918501612301565b92015190565b815181526020918201910161241c565b51906001600160a01b03821682036101b457565b156124ea57565b60405162461bcd60e51b815260206004820152601760248201527f496e76616c696420726f617374657220616464726573730000000000000000006044820152606490fd5b1561253657565b60405162461bcd60e51b815260206004820152601c60248201527f4e4654206e6f74206f776e6564206279206d61726b6574706c616365000000006044820152606490fd5b9190610160838203126101b45782516001600160401b0381116101b457816125a4918501612301565b9260208101516001600160401b0381116101b457826125c4918301612301565b9260408201516001600160401b0381116101b457836125e4918401612301565b926060830151926080810151926125fd60a08301612343565b9260c08301516001600160401b0381116101b4578161261d918501612301565b9260e08101516001600160401b0381116101b4578261263d918301612301565b926101008201516001600160401b0381116101b4578361265e918401612301565b926101208301516001600160401b0381116101b457610140916124b9918501612301565b1561268957565b60405162461bcd60e51b815260206004820152601760248201527f4e4654206e6f742061637469766520666f722073616c650000000000000000006044820152606490fd5b156126d557565b60405162461bcd60e51b8152602060048201526014602482015273125b9cdd59999a58da595b9d081c185e5b595b9d60621b6044820152606490fd5b3d1561273c573d9061272282612072565b916127306040519384612051565b82523d6000602084013e565b606090565b1561274857565b60405162461bcd60e51b815260206004820152601660248201527511985a5b1959081d1bc81cd95b99081c185e5b595b9d60521b6044820152606490fd5b6001600160a01b039091169190821561292c576000828152600260205260409020546001600160a01b031692829033151580612891575b5084612853575b8060005260036020526040600020600181540190558160005260026020526040600020816bffffffffffffffffffffffff60a01b825416179055847fddf252ad1be2c89b69c2b068fc378daa952ba7f163c4a11628f55a4df523b3ef600080a46001600160a01b031680830361283957505050565b6364283d7b60e01b60005260045260245260445260646000fd5b81600052600460205260406000206bffffffffffffffffffffffff60a01b8154169055846000526003602052604060002060001981540190556127c4565b909150806128d9575b156128a7578290386127bd565b82846128c157637e27328960e01b60005260045260246000fd5b63177e802f60e01b6000523360045260245260446000fd5b503384148015612909575b8061289a57506000838152600460205260409020546001600160a01b0316331461289a565b50600084815260056020908152604080832033845290915290205460ff166128e4565b633250574960e11b600052600060045260246000fd5b1561294957565b60405162461bcd60e51b815260206004820152602860248201527f52657761726420646973747269627574696f6e206973206e6f7420617661696c60448201526718589b19481e595d60c21b6064820152608490fd5b600a546040516331a9108f60e11b8152600481018390526001600160a01b039091169190602081602481865afa60009181612a62575b506129e257505050600090565b306001600160a01b0390911603612a5b57600090602460405180948193636be9a6f160e01b835260048301525afa9081156105ff57600090600092612a33575b5081612a2c575090565b9050151590565b9050612a4a91503d806000833e610ad78183612051565b505050505094509250505038612a22565b5050600090565b9091506020813d602011612a96575b81612a7e60209383612051565b810103126101b457612a8f906124cf565b90386129d5565b3d9150612a71565b600b5462278d00810180911161060b57612aba90421015612942565b60095460405163403ac10d60e01b81529061028090829060049082906001600160a01b03165afa9081156105ff57600091612e12575b50600854604051631f16653b60e01b81526001600160a01b039091169190602081600481865afa9081156105ff57600091612de0575b508015612d9157600060249360405194858092632e76c56d60e21b82528560048301525afa80156105ff576000808092819682908392612d5f575b5060005b60038110612b7c5750505050505050505042600b55565b600a81101561224c57600581901b880151516001600160a01b031680612ba6575b50600101612b65565b600a5460405187518c926001600160a01b031691908190612bce816020808501908e01611fdd565b8101602081016c2028526577617264204e46542960981b90520360200160121981018252600d01612bff9082612051565b604051631bd118d360e21b8152600481018590526101406024820152928391829190612c2f61014484018c612000565b838103600319016044850152612c4491612000565b828103600319810160648501526016825275697066733a2f2f7265776172645f6d6574616461746160501b6020830152608484018f9052600060a4850152603c0160c4840152612c97906040018d612000565b8281036003190160e4840152612cac91612000565b81810360031901610104830152612cc39088612000565b81810360031901610124830152612cda9089612000565b03815a602094600091f19081156105ff57600091612d2d575b506040600193927fe084fd9ba3c06cae1c6e5934df30fd6a03bcd0b3269833257a95914325369c769282519182526020820152a190612b9d565b906020823d8211612d57575b81612d4660209383612051565b810103126106e75750516040612cf3565b3d9150612d39565b945050509050612d7a9294503d8091833e6106a38183612051565b5095509a9893509694509450509192939638612b61565b60405162461bcd60e51b815260206004820152602160248201527f4e6f2070726f647563747320617661696c61626c6520666f72207265776172646044820152607360f81b6064820152608490fd5b906020823d602011612e0a575b81612dfa60209383612051565b810103126106e757505138612b26565b3d9150612ded565b6102803d8111612ef7575b612e278183612051565b81019061028081830312612edf5781601f82011215612edf576040519261014084018481106001600160401b03821117612ee3576040528392610280830192818411612edf57935b838510612e8157505050505038612af0565b604085830312612edf57604051604081018181106001600160401b03821117612ecb57916020916040938452612eb6886124cf565b81528288015183820152815201940193612e6f565b634e487b7160e01b85526041600452602485fd5b8280fd5b634e487b7160e01b82526041600452602482fd5b503d612e1d565b9291612f0b818386612786565b813b612f18575b50505050565b604051630a85bd0160e11b81523360048201526001600160a01b0394851660248201526044810191909152608060648201529216919060209082908190612f63906084830190612000565b03816000865af18091600091612fda575b5090612fa55750612f83612711565b80519081612fa05782633250574960e11b60005260045260246000fd5b602001fd5b6001600160e01b03191663757a42ff60e11b01612fc6575038808080612f12565b633250574960e11b60005260045260246000fd5b6020813d602011613019575b81612ff360209383612051565b810103126130155751906001600160e01b0319821682036106e7575038612f74565b5080fd5b3d9150612fe6565b61302a8161315e565b50600052600660205260406000206040519060008154918260011c926001811680156130fb575b602085108114610cb2578486528593929181156130d95750600114613092575b5061307e92500382612051565b600060405161308e602082612051565b5290565b90506000929192526020600020906000915b8183106130bd57505090602061307e9282010138613071565b60209193508060019154838588010152019101909183926130a4565b90506020925061307e94915060ff191682840152151560051b82010138613071565b93607f1693613051565b600019811461060b5760010190565b9061311e82612116565b61312b6040519182612051565b828152809261313c601f1991612116565b019060005b82811061314d57505050565b806060602080938501015201613141565b6000818152600260205260409020546001600160a01b0316908115613181575090565b637e27328960e01b60005260045260246000fd5b6007546001600160a01b031633036131a957565b63118cdaa760e01b6000523360045260246000fdfea264697066735822122095b1f068a553804a9d6618e7dad3c61d23fc5dacc787c750e82b03fed6ea471c64736f6c634300081b0033",
  "linkReferences": {},
  "deployedLinkReferences": {}
}