{
  "_format": "hh-sol-artifact-1",
  "contractName": "Product",
  "sourceName": "contracts/Product.sol",
  "abi": [
    {
      "inputs": [
        {
          "internalType": "address[]",
          "name": "_roasters",
          "type": "address[]"
        },
        {
          "internalType": "string[]",
          "name": "_names",
          "type": "string[]"
        },
        {
          "internalType": "string[]",
          "name": "_descriptions",
          "type": "string[]"
        },
        {
          "internalType": "string[]",
          "name": "_ipfsHashes",
          "type": "string[]"
        },
        {
          "internalType": "uint256[]",
          "name": "_prices",
          "type": "uint256[]"
        },
        {
          "internalType": "uint256[]",
          "name": "_quantities",
          "type": "uint256[]"
        },
        {
          "internalType": "uint256[][]",
          "name": "_nftIds",
          "type": "uint256[][]"
        },
        {
          "internalType": "string[]",
          "name": "_origins",
          "type": "string[]"
        },
        {
          "internalType": "string[]",
          "name": "_roastLevels",
          "type": "string[]"
        },
        {
          "internalType": "string[]",
          "name": "_beanTypes",
          "type": "string[]"
        },
        {
          "internalType": "string[]",
          "name": "_processMethods",
          "type": "string[]"
        },
        {
          "internalType": "uint256[]",
          "name": "_roastDates",
          "type": "uint256[]"
        }
      ],
      "stateMutability": "nonpayable",
      "type": "constructor"
    },
    {
      "anonymous": false,
      "inputs": [
        {
          "indexed": false,
          "internalType": "uint256",
          "name": "productId",
          "type": "uint256"
        },
        {
          "indexed": false,
          "internalType": "uint256",
          "name": "oldQuantity",
          "type": "uint256"
        },
        {
          "indexed": false,
          "internalType": "uint256",
          "name": "newQuantity",
          "type": "uint256"
        }
      ],
      "name": "ListingQuantityUpdated",
      "type": "event"
    },
    {
      "anonymous": false,
      "inputs": [
        {
          "indexed": false,
          "internalType": "uint256",
          "name": "productId",
          "type": "uint256"
        },
        {
          "indexed": true,
          "internalType": "address",
          "name": "roaster",
          "type": "address"
        },
        {
          "indexed": false,
          "internalType": "string",
          "name": "name",
          "type": "string"
        },
        {
          "indexed": false,
          "internalType": "uint256",
          "name": "price",
          "type": "uint256"
        },
        {
          "indexed": false,
          "internalType": "uint256",
          "name": "quantity",
          "type": "uint256"
        },
        {
          "indexed": false,
          "internalType": "string",
          "name": "origin",
          "type": "string"
        },
        {
          "indexed": false,
          "internalType": "string",
          "name": "roastLevel",
          "type": "string"
        }
      ],
      "name": "ProductAdded",
      "type": "event"
    },
    {
      "anonymous": false,
      "inputs": [
        {
          "indexed": true,
          "internalType": "uint256",
          "name": "productId",
          "type": "uint256"
        },
        {
          "indexed": false,
          "internalType": "string",
          "name": "name",
          "type": "string"
        },
        {
          "indexed": false,
          "internalType": "string",
          "name": "description",
          "type": "string"
        },
        {
          "indexed": false,
          "internalType": "string",
          "name": "ipfsHash",
          "type": "string"
        }
      ],
      "name": "ProductMetadataUpdated",
      "type": "event"
    },
    {
      "inputs": [
        {
          "internalType": "address",
          "name": "_roaster",
          "type": "address"
        },
        {
          "internalType": "string",
          "name": "_name",
          "type": "string"
        },
        {
          "internalType": "string",
          "name": "_description",
          "type": "string"
        },
        {
          "internalType": "string",
          "name": "_ipfsHash",
          "type": "string"
        },
        {
          "internalType": "uint256",
          "name": "_price",
          "type": "uint256"
        },
        {
          "internalType": "uint256",
          "name": "_quantity",
          "type": "uint256"
        },
        {
          "internalType": "uint256[]",
          "name": "_nftIds",
          "type": "uint256[]"
        },
        {
          "internalType": "string",
          "name": "_origin",
          "type": "string"
        },
        {
          "internalType": "string",
          "name": "_roastLevel",
          "type": "string"
        },
        {
          "internalType": "string",
          "name": "_beanType",
          "type": "string"
        },
        {
          "internalType": "string",
          "name": "_processMethod",
          "type": "string"
        }
      ],
      "name": "addProduct",
      "outputs": [
        {
          "internalType": "uint256",
          "name": "",
          "type": "uint256"
        }
      ],
      "stateMutability": "nonpayable",
      "type": "function"
    },
    {
      "inputs": [
        {
          "internalType": "uint256",
          "name": "_productId",
          "type": "uint256"
        }
      ],
      "name": "getProduct",
      "outputs": [
        {
          "internalType": "string",
          "name": "name",
          "type": "string"
        },
        {
          "internalType": "string",
          "name": "description",
          "type": "string"
        },
        {
          "internalType": "string",
          "name": "ipfsHash",
          "type": "string"
        },
        {
          "internalType": "uint256",
          "name": "price",
          "type": "uint256"
        },
        {
          "internalType": "uint256",
          "name": "quantity",
          "type": "uint256"
        },
        {
          "internalType": "uint256[]",
          "name": "nftIds",
          "type": "uint256[]"
        },
        {
          "internalType": "bool",
          "name": "available",
          "type": "bool"
        },
        {
          "internalType": "string",
          "name": "origin",
          "type": "string"
        },
        {
          "internalType": "string",
          "name": "roastLevel",
          "type": "string"
        },
        {
          "internalType": "string",
          "name": "beanType",
          "type": "string"
        },
        {
          "internalType": "string",
          "name": "processMethod",
          "type": "string"
        },
        {
          "internalType": "uint256",
          "name": "roastDate",
          "type": "uint256"
        }
      ],
      "stateMutability": "view",
      "type": "function"
    },
    {
      "inputs": [
        {
          "internalType": "uint256",
          "name": "_tokenId",
          "type": "uint256"
        }
      ],
      "name": "getProductIdByNFT",
      "outputs": [
        {
          "internalType": "uint256",
          "name": "",
          "type": "uint256"
        }
      ],
      "stateMutability": "view",
      "type": "function"
    },
    {
      "inputs": [
        {
          "internalType": "uint256",
          "name": "_productId",
          "type": "uint256"
        }
      ],
      "name": "getProductRoaster",
      "outputs": [
        {
          "internalType": "address",
          "name": "",
          "type": "address"
        }
      ],
      "stateMutability": "view",
      "type": "function"
    },
    {
      "inputs": [
        {
          "internalType": "uint256",
          "name": "",
          "type": "uint256"
        }
      ],
      "name": "nftToProduct",
      "outputs": [
        {
          "internalType": "uint256",
          "name": "",
          "type": "uint256"
        }
      ],
      "stateMutability": "view",
      "type": "function"
    },
    {
      "inputs": [],
      "name": "productCounter",
      "outputs": [
        {
          "internalType": "uint256",
          "name": "",
          "type": "uint256"
        }
      ],
      "stateMutability": "view",
      "type": "function"
    },
    {
      "inputs": [
        {
          "internalType": "uint256",
          "name": "",
          "type": "uint256"
        }
      ],
      "name": "products",
      "outputs": [
        {
          "internalType": "uint256",
          "name": "productId",
          "type": "uint256"
        },
        {
          "internalType": "address",
          "name": "roaster",
          "type": "address"
        },
        {
          "internalType": "string",
          "name": "name",
          "type": "string"
        },
        {
          "internalType": "string",
          "name": "description",
          "type": "string"
        },
        {
          "internalType": "string",
          "name": "ipfsHash",
          "type": "string"
        },
        {
          "internalType": "uint256",
          "name": "price",
          "type": "uint256"
        },
        {
          "internalType": "uint256",
          "name": "quantity",
          "type": "uint256"
        },
        {
          "internalType": "bool",
          "name": "available",
          "type": "bool"
        },
        {
          "internalType": "string",
          "name": "origin",
          "type": "string"
        },
        {
          "internalType": "string",
          "name": "roastLevel",
          "type": "string"
        },
        {
          "internalType": "string",
          "name": "beanType",
          "type": "string"
        },
        {
          "internalType": "string",
          "name": "processMethod",
          "type": "string"
        },
        {
          "internalType": "uint256",
          "name": "roastDate",
          "type": "uint256"
        },
        {
          "internalType": "bool",
          "name": "isFeaturedCoffee",
          "type": "bool"
        }
      ],
      "stateMutability": "view",
      "type": "function"
    },
    {
      "inputs": [
        {
          "internalType": "uint256",
          "name": "_productId",
          "type": "uint256"
        },
        {
          "internalType": "uint256",
          "name": "_newQuantity",
          "type": "uint256"
        }
      ],
      "name": "updateListingQuantity",
      "outputs": [],
      "stateMutability": "nonpayable",
      "type": "function"
    },
    {
      "inputs": [
        {
          "internalType": "uint256",
          "name": "_productId",
          "type": "uint256"
        },
        {
          "internalType": "string",
          "name": "_name",
          "type": "string"
        },
        {
          "internalType": "string",
          "name": "_description",
          "type": "string"
        },
        {
          "internalType": "string",
          "name": "_ipfsHash",
          "type": "string"
        },
        {
          "internalType": "string",
          "name": "_origin",
          "type": "string"
        },
        {
          "internalType": "string",
          "name": "_roastLevel",
          "type": "string"
        },
        {
          "internalType": "string",
          "name": "_beanType",
          "type": "string"
        },
        {
          "internalType": "string",
          "name": "_processMethod",
          "type": "string"
        }
      ],
      "name": "updateProductMetadata",
      "outputs": [],
      "stateMutability": "nonpayable",
      "type": "function"
    },
    {
      "inputs": [
        {
          "internalType": "uint256",
          "name": "_productId",
          "type": "uint256"
        }
      ],
      "name": "updateQuantityAfterTransfer",
      "outputs": [],
      "stateMutability": "nonpayable",
      "type": "function"
    }
  ],
  "bytecode": "0x6102c060405234610f4157612fd48038038061001a81610f93565b928339810161018082820312610f415781516001600160401b038111610f4157820181601f82011215610f415780519060208061005e61005985610fb8565b610f93565b806101a052848152019260051b82010190838211610f4157602001915b818310610f735750505060208201516001600160401b038111610f4157816100a4918401610fcf565b6101005260408201516001600160401b038111610f4157816100c7918401610fcf565b6101205260608201516001600160401b038111610f4157816100ea918401610fcf565b6101c05260808201516001600160401b038111610f41578161010d9184016110a5565b6101405260a08201516001600160401b038111610f4157816101309184016110a5565b6101605260c08201516001600160401b038111610f4157820181601f82011215610f415780519060208061016661005985610fb8565b806101e052848152019260051b82010191838311610f415760208201905b838210610f465760e0860151869086906001600160401b038111610f4157816101ae918401610fcf565b610180526101008201516001600160401b038111610f4157816101d2918401610fcf565b610200526101208201516001600160401b038111610f4157816101f6918401610fcf565b610220526101408201516001600160401b038111610f41578161021a918401610fcf565b610240526101608201516001600160401b038111610f415761023c92016110a5565b61026052600080556101a0515115610ef2576101a0515161010051518091149081610ee4575b5080610ed3575b80610ec2575b80610eb1575b80610ea0575b80610e8f575b80610e7e575b80610e6d575b80610e5c575b80610e4b575b15610e065760006102a0525b6101a051516102a0511015610df75760005461028081905260001914610de157610280516001016000556102a0516101a0516001600160a01b03916102e9916110f8565b51166102fb6102a051610100516110f8565b5161030c6102a051610120516110f8565b5161031d6102a0516101c0516110f8565b5161032e6102a051610140516110f8565b5161033f6102a051610160516110f8565b516103506102a0516101e0516110f8565b51906103626102a051610180516110f8565b5160e0526103766102a051610200516110f8565b51926103886102a051610220516110f8565b519461039a6102a051610240516110f8565b51966103ac6102a051610260516110f8565b516040519a9099906101e08c016001600160401b0381118d82101761099257604052600161028051018c5260208c015260408b015260608a0152608089015260a088015260c087015260e0860152610100850160c052600160c0515260e0516101208601526101408501526101608401526101808301526101a082015260006101c0820152600161028051016000526001602052604060002060a052805160a05155600160a0510160018060a01b0360208301511660018060a01b0319825416179055600260a0510190604081015191825160018060401b038111610992578154600181811c91168015610dd7575b602082101461097257601f8111610da5575b506020601f8211600114610d405781929394600092610d35575b50508160011b916000199060031b1c19161790555b60a05160608201518051909291600301906001600160401b038111610992578154600181811c91168015610d2b575b602082101461097257601f8111610cf9575b506020601f8211600114610c945781929394600092610c89575b50508160011b916000199060031b1c19161790555b60a05160808201518051909291600401906001600160401b038111610992578154600181811c91168015610c7f575b602082101461097257601f8111610c4d575b506020601f8211600114610be85781929394600092610bdd575b50508160011b916000199060031b1c19161790555b60a0818101519051600581019190915560c0820151600682015560e0820151805191600701906001600160401b03831161099257680100000000000000008311610992576020908254848455808510610bc0575b500190600052602060002060005b838110610bac575050505061064960c051511515600860a051019060ff801983541691151516179055565b60a0516101208201518051909291600901906001600160401b038111610992578154600181811c91168015610ba2575b602082101461097257601f8111610b70575b506020601f8211600114610b0b5781929394600092610b00575b50508160011b916000199060031b1c19161790555b60a0516101408201518051909291600a01906001600160401b038111610992578154600181811c91168015610af6575b602082101461097257601f8111610ac4575b506020601f8211600114610a5f5781929394600092610a54575b50508160011b916000199060031b1c19161790555b60a0516101608201518051909291600b01906001600160401b038111610992578154600181811c91168015610a4a575b602082101461097257601f8111610a18575b506020601f82116001146109b357819293946000926109a8575b50508160011b916000199060031b1c19161790555b6101808101518051906001600160401b03821161099257600c60a0510154600181811c91168015610988575b602082101461097257601f8111610930575b50602090601f83116001146108b657918061083e94926101c0946000926108ab575b50508160011b916000199060031b1c191617600c60a05101555b6101a0810151600d60a051015501511515600e60a051019060ff801983541691151516179055565b60006080525b6108546102a0516101e0516110f8565b5151608051101561089b5760005461087e6080516108786102a0516101e0516110f8565b516110f8565b516000526002602052604060002055600160805101608052610844565b60016102a051016102a0526102a5565b0151905085806107fc565b90600c60a05101600052806000209160005b601f198516811061091857509261083e94926001926101c09583601f198116106108ff575b505050811b01600c60a0510155610816565b015160001960f88460031b161c191690558580806108ed565b919260206001819286850151815501940192016108c8565b61096290600c60a051016000526020600020601f850160051c81019160208610610968575b601f0160051c0190611122565b836107da565b9091508190610955565b634e487b7160e01b600052602260045260246000fd5b90607f16906107c8565b634e487b7160e01b600052604160045260246000fd5b015190508480610787565b601f1982169083600052806000209160005b818110610a00575095836001959697106109e7575b505050811b01905561079c565b015160001960f88460031b161c191690558480806109da565b9192602060018192868b0151815501940192016109c5565b610a4490836000526020600020601f840160051c8101916020851061096857601f0160051c0190611122565b8461076d565b90607f169061075b565b015190508480610716565b601f1982169083600052806000209160005b818110610aac57509583600195969710610a93575b505050811b01905561072b565b015160001960f88460031b161c19169055848080610a86565b9192602060018192868b015181550194019201610a71565b610af090836000526020600020601f840160051c8101916020851061096857601f0160051c0190611122565b846106fc565b90607f16906106ea565b0151905084806106a5565b601f1982169083600052806000209160005b818110610b5857509583600195969710610b3f575b505050811b0190556106ba565b015160001960f88460031b161c19169055848080610b32565b9192602060018192868b015181550194019201610b1d565b610b9c90836000526020600020601f840160051c8101916020851061096857601f0160051c0190611122565b8461068b565b90607f1690610679565b60019060208451940193818401550161061e565b610bd7908460005285846000209182019101611122565b85610610565b0151905084806105a7565b601f1982169083600052806000209160005b818110610c3557509583600195969710610c1c575b505050811b0190556105bc565b015160001960f88460031b161c19169055848080610c0f565b9192602060018192868b015181550194019201610bfa565b610c7990836000526020600020601f840160051c8101916020851061096857601f0160051c0190611122565b8461058d565b90607f169061057b565b015190508480610537565b601f1982169083600052806000209160005b818110610ce157509583600195969710610cc8575b505050811b01905561054c565b015160001960f88460031b161c19169055848080610cbb565b9192602060018192868b015181550194019201610ca6565b610d2590836000526020600020601f840160051c8101916020851061096857601f0160051c0190611122565b8461051d565b90607f169061050b565b0151905084806104c7565b601f1982169083600052806000209160005b818110610d8d57509583600195969710610d74575b505050811b0190556104dc565b015160001960f88460031b161c19169055848080610d67565b9192602060018192868b015181550194019201610d52565b610dd190836000526020600020601f840160051c8101916020851061096857601f0160051c0190611122565b846104ad565b90607f169061049b565b634e487b7160e01b600052601160045260246000fd5b604051611e9a908161113a8239f35b60405162461bcd60e51b815260206004820152601860248201527f4172726179206c656e67746873206d757374206d6174636800000000000000006044820152606490fd5b506102405151610260515114610299565b506102205151610240515114610293565b50610200515161022051511461028d565b506101805151610200515114610287565b506101e05151610180515114610281565b5061016051516101e051511461027b565b506101405151610160515114610275565b506101c0515161014051511461026f565b5061012051516101c0515114610269565b905061012051511481610262565b60405162461bcd60e51b815260206004820152602160248201527f4d7573742070726f76696465206174206c65617374206f6e652070726f6475636044820152601d60fa1b6064820152608490fd5b600080fd5b81516001600160401b038111610f4157602091610f68878480948801016110a5565b815201910190610184565b82516001600160a01b0381168103610f415781526020928301920161007b565b6040519190601f01601f191682016001600160401b0381118382101761099257604052565b6001600160401b0381116109925760051b60200190565b9080601f83011215610f4157815190610fea61005983610fb8565b9260208085858152019360051b82010190828211610f415760208101935b82851061101757505050505090565b84516001600160401b038111610f4157820184603f82011215610f415760208101516001600160401b0381116109925761105a601f8201601f1916602001610f93565b818152916040828201018710610f415760005b82811061108e57505091816000602080958195010152815201940193611008565b80602080809385010101518282870101520161106d565b9080601f83011215610f415781516110bf61005982610fb8565b9260208085848152019260051b820101928311610f4157602001905b8282106110e85750505090565b81518152602091820191016110db565b805182101561110c5760209160051b010190565b634e487b7160e01b600052603260045260246000fd5b81811061112d575050565b6000815560010161112256fe608080604052600436101561001357600080fd5b60003560e01c9081631f16653b14611bef575080632aa3735c14611b6b578063454d47e614611b3f57806348c8ce1c14611aef5780634d3fcde214610f095780637acc0b2014610da75780639cef5ca914610c88578063ad11999e14610c01578063b9db15b41461098c5763c6f8529c1461008d57600080fd5b3461098757610100366003190112610987576004356024356001600160401b038111610987576100c1903690600401611c47565b6044356001600160401b038111610987576100e0903690600401611c47565b6064356001600160401b038111610987576100ff903690600401611c47565b906084356001600160401b0381116109875761011f903690600401611c47565b60a4356001600160401b0381116109875761013e903690600401611c47565b9060c4356001600160401b0381116109875761015e903690600401611c47565b60e4356001600160401b0381116109875761017d903690600401611c47565b928760005260016020526101976040600020541515611e1f565b600088815260016020819052604090912001546001600160a01b03163303610943578760005260016020526040600020926002840188516001600160401b03811161055b576101e68254611c9d565b601f8111610911575b50806020601f82116001146108ac576000916108a1575b508160011b916000199060031b1c19161790555b6003840186516001600160401b03811161055b576102388254611c9d565b601f811161086f575b50806020601f821160011461080a576000916107ff575b508160011b916000199060031b1c19161790555b6004840187516001600160401b03811161055b5761028a8254611c9d565b601f81116107cd575b50806020601f82116001146107685760009161075d575b508160011b916000199060031b1c19161790555b805160098501916001600160401b03821161055b5781906102df8454611c9d565b601f811161072b575b50602090601f83116001146106c6576000926106bb575b50508160011b916000199060031b1c19161790555b8051600a8401916001600160401b03821161055b5781906103358454611c9d565b601f8111610689575b50602090601f831160011461062457600092610619575b50508160011b916000199060031b1c19161790555b8051600b8301916001600160401b03821161055b576103898354611c9d565b601f81116105e7575b50602090601f831160011461057c57600c9493929160009183610571575b50508160011b916000199060031b1c19161790555b01908051906001600160401b03821161055b576103e28354611c9d565b601f811161051e575b50602090601f83116001146104895793610479938361045d979461046b947fb84036a88f50120de6af4bafae0efd9d2cd897ae0e23218bc6dfc56a77bea9ce9a9860009261047e575b50508160011b916000199060031b1c19161790555b604051958695606087526060870190611d7b565b908582036020870152611d7b565b908382036040850152611d7b565b0390a2005b015190503880610434565b90601f1983169184600052816000209260005b81811061050657508461046b947fb84036a88f50120de6af4bafae0efd9d2cd897ae0e23218bc6dfc56a77bea9ce9a9894610479989461045d9b98600195106104ed575b505050811b019055610449565b015160001960f88460031b161c191690553880806104e0565b9293602060018192878601518155019501930161049c565b61054b90846000526020600020601f850160051c81019160208610610551575b601f0160051c0190611e08565b386103eb565b909150819061053e565b634e487b7160e01b600052604160045260246000fd5b0151905038806103b0565b90601f1983169184600052816000209260005b8181106105cf5750916001939185600c98979694106105b6575b505050811b0190556103c5565b015160001960f88460031b161c191690553880806105a9565b9293602060018192878601518155019501930161058f565b61061390846000526020600020601f850160051c8101916020861061055157601f0160051c0190611e08565b38610392565b015190503880610355565b60008581528281209350601f198516905b8181106106715750908460019594939210610658575b505050811b01905561036a565b015160001960f88460031b161c1916905538808061064b565b92936020600181928786015181550195019301610635565b6106b590856000526020600020601f850160051c8101916020861061055157601f0160051c0190611e08565b3861033e565b0151905038806102ff565b60008581528281209350601f198516905b81811061071357509084600195949392106106fa575b505050811b019055610314565b015160001960f88460031b161c191690553880806106ed565b929360206001819287860151815501950193016106d7565b61075790856000526020600020601f850160051c8101916020861061055157601f0160051c0190611e08565b386102e8565b9050890151386102aa565b60008481528181209250601f198416905b8c8282106107b5575050908360019493921061079c575b5050811b0190556102be565b8b015160001960f88460031b161c191690553880610790565b60018495602093958493015181550194019201610779565b6107f990836000526020600020601f840160051c8101916020851061055157601f0160051c0190611e08565b38610293565b905088015138610258565b60008481528181209250601f198416905b8b828210610857575050908360019493921061083e575b5050811b01905561026c565b8a015160001960f88460031b161c191690553880610832565b6001849560209395849301518155019401920161081b565b61089b90836000526020600020601f840160051c8101916020851061055157601f0160051c0190611e08565b38610241565b90508a015138610206565b60008481528181209250601f198416905b8d8282106108f957505090836001949392106108e0575b5050811b01905561021a565b8c015160001960f88460031b161c1916905538806108d4565b600184956020939584930151815501940192016108bd565b61093d90836000526020600020601f840160051c8101916020851061055157601f0160051c0190611e08565b386101ef565b606460405162461bcd60e51b815260206004820152602060248201527f4f6e6c7920726f61737465722063616e20757064617465206d657461646174616044820152fd5b600080fd5b346109875760203660031901126109875760043560005260016020526040600020604051906109ba82611c0a565b8054825260018101546001600160a01b031660208301526109dd60028201611cd7565b91604081019283526109f160038301611cd7565b9160608201928352610a0560048201611cd7565b916080810192835260058201549460a0820195865260068301549560c0830196875260078401604051809182916020825491828152019160005260206000209060005b818110610be85750505003610a5d9082611c26565b60e08401908152600885015460ff161515610100850190815297610a8360098701611cd7565b610120860190815291610a98600a8801611cd7565b610140870190815293610aad600b8901611cd7565b610160880190815295610ac2600c8a01611cd7565b976101808101988952600d8a0154996101a082019a8b52600e015460ff1615156101c0820152511515610af490611dbc565b51995198519051925191519a51151593519451955196519751986040519a6101808c526101808c01610b2591611d7b565b8b810360208d0152610b3691611d7b565b8a810360408c0152610b4791611d7b565b9160608a0152608089015287810360a0890152885190818152602001986020019060005b818110610bd257505050610bb892610b9a8899610bc7979694610ba99460c08c01528a820360e08c0152611d7b565b908882036101008a0152611d7b565b90868203610120880152611d7b565b90848203610140860152611d7b565b906101608301520390f35b82518b5260209a8b019a90920191600101610b6b565b8254845285945060209093019260019283019201610a48565b34610987576040366003190112610987577f3925ec6cd3ef707bcd3e81630058ebe674334b5e72f9f21d43ff8cd3773c5ba160043560243590806000526001602052610c536040600020541515611e1f565b60008181526001602090815260409182902060060180549085905582519384529083015281019190915280606081015b0390a1005b3461098757602036600319011261098757600435806000526001602052610cb56040600020541515611e1f565b8060005260016020526006604060002001548015610d6a57600019810191818311610d5457610c837f3925ec6cd3ef707bcd3e81630058ebe674334b5e72f9f21d43ff8cd3773c5ba193826000526001602052806006604060002001558015610d36575b604051938493846040919493926060820195825260208201520152565b826000526001602052600860406000200160ff198154169055610d19565b634e487b7160e01b600052601160045260246000fd5b60405162461bcd60e51b81526020600482015260156024820152744e6f207175616e7469747920617661696c61626c6560581b6044820152606490fd5b3461098757602036600319011261098757600435600052600160205260406000208054600160a01b600190036001830154169160028101610de790611cd7565b610df360038301611cd7565b610dff60048401611cd7565b6005840154600685015490600886015460ff169060098701610e2090611cd7565b91610e2d600a8901611cd7565b93610e3a600b8a01611cd7565b95610e47600c8b01611cd7565b97600d8b01549a600e015460ff16996040519d8e809e81526020015260408d016101c090526101c08d01610e7a91611d7b565b8c810360608e0152610e8b91611d7b565b8b810360808d0152610e9c91611d7b565b9260a08b015260c08a0152151560e0890152878103610100890152610ec091611d7b565b868103610120880152610ed291611d7b565b858103610140870152610ee491611d7b565b848103610160860152610ef691611d7b565b9161018084015215156101a08301520390f35b3461098757610160366003190112610987576004356001600160a01b03811690819003610987576024356001600160401b03811161098757610f4f903690600401611c47565b906044356001600160401b03811161098757610f6f903690600401611c47565b906064356001600160401b03811161098757610f8f903690600401611c47565b9260c4359160a435916084356001600160401b0385116109875736602386011215610987578460040135946001600160401b03861161055b578560051b60405196610fdd6020830189611c26565b8752602460208801918301019136831161098757602401905b828210611adf5750505060e4356001600160401b0381116109875761101f903690600401611c47565b95610104356001600160401b03811161098757611040903690600401611c47565b97610124356001600160401b03811161098757611061903690600401611c47565b90610144356001600160401b03811161098757611082903690600401611c47565b8415611a9a578715611a4a57855115611a0e578151156119c9576000546000198114610d545760010192836000558b8b604051946110bf86611c0a565b8686528c8c60208801998d8b5260408901938d855260608a0191825260808a0190815260a08a01918d835260c08b0193845260e08b019485526101008b0195600187526101208c019788526101408c019889526101608c01998a526101808c019a8b526101a08c019b428d526101c081019d60008f52600052600160205260406000209e8f915182556001820190600160a01b600190039051166bffffffffffffffffffffffff60a01b82541617905560020190518051906001600160401b03821161055b5781906111918454611c9d565b601f8111611997575b50602090601f831160011461193257600092611927575b50508160011b916000199060031b1c19161790555b51805160038e01916001600160401b03821161055b5781906111e88454611c9d565b601f81116118f5575b50602090601f831160011461189057600092611885575b50508160011b916000199060031b1c19161790555b51805160048d01916001600160401b03821161055b57819061123f8454611c9d565b601f8111611853575b50602090601f83116001146117ee576000926117e3575b50508160011b916000199060031b1c19161790555b5160058b01555160068a01555180519060078a01906001600160401b03831161055b5768010000000000000000831161055b5760209082548484558085106117c6575b500190600052602060002060005b8381106117b257505050506112ec90511515600889019060ff801983541691151516179055565b51805160098801916001600160401b03821161055b57819061130e8454611c9d565b601f8111611780575b50602090601f831160011461171b57600092611710575b50508160011b916000199060031b1c19161790555b518051600a8701916001600160401b03821161055b5781906113658454611c9d565b601f81116116de575b50602090601f83116001146116795760009261166e575b50508160011b916000199060031b1c19161790555b518051600b8601916001600160401b03821161055b5781906113bc8454611c9d565b601f811161163c575b50602090601f83116001146115d7576000926115cc575b50508160011b916000199060031b1c19161790555b518051600c8501916001600160401b03821161055b576114118354611c9d565b601f811161159a575b50602090601f831160011461152a57918061146f97969492600e969460009261151f575b50508160011b916000199060031b1c19161790555b51600d84015551151591019060ff801983541691151516179055565b60005b855181101561149e576001906000546040600060208460051b8b01015181526002602052205501611472565b50602094507f0e06aa878bc938334b9e0653514e38a088219db02044112298eeb2fd3c65400791611514886115066114ee948a600054996040519788978c895260c08e8a015260c0890190611d7b565b92604088015260608701528582036080870152611d7b565b9083820360a0850152611d7b565b0390a2604051908152f35b015190508f8061143e565b90601f1983169184600052816000209260005b8181106115825750926001928592600e989661146f9b9a989610611569575b505050811b019055611453565b015160001960f88460031b161c191690558f808061155c565b9293602060018192878601518155019501930161153d565b6115c690846000526020600020601f850160051c8101916020861061055157601f0160051c0190611e08565b8d61141a565b015190508e806113dc565b60008581528281209350601f198516905b818110611624575090846001959493921061160b575b505050811b0190556113f1565b015160001960f88460031b161c191690558e80806115fe565b929360206001819287860151815501950193016115e8565b61166890856000526020600020601f850160051c8101916020861061055157601f0160051c0190611e08565b8f6113c5565b015190508f80611385565b60008581528281209350601f198516905b8181106116c657509084600195949392106116ad575b505050811b01905561139a565b015160001960f88460031b161c191690558f80806116a0565b9293602060018192878601518155019501930161168a565b61170a90856000526020600020601f850160051c8101916020861061055157601f0160051c0190611e08565b3861136e565b01519050388061132e565b60008581528281209350601f198516905b818110611768575090846001959493921061174f575b505050811b019055611343565b015160001960f88460031b161c19169055388080611742565b9293602060018192878601518155019501930161172c565b6117ac90856000526020600020601f850160051c8101916020861061055157601f0160051c0190611e08565b38611317565b6001906020845194019381840155016112c5565b6117dd908460005285846000209182019101611e08565b386112b7565b01519050388061125f565b60008581528281209350601f198516905b81811061183b5750908460019594939210611822575b505050811b019055611274565b015160001960f88460031b161c19169055388080611815565b929360206001819287860151815501950193016117ff565b61187f90856000526020600020601f850160051c8101916020861061055157601f0160051c0190611e08565b38611248565b015190503880611208565b60008581528281209350601f198516905b8181106118dd57509084600195949392106118c4575b505050811b01905561121d565b015160001960f88460031b161c191690553880806118b7565b929360206001819287860151815501950193016118a1565b61192190856000526020600020601f850160051c8101916020861061055157601f0160051c0190611e08565b386111f1565b0151905038806111b1565b60008581528281209350601f198516905b81811061197f5750908460019594939210611966575b505050811b0190556111c6565b015160001960f88460031b161c19169055388080611959565b92936020600181928786015181550195019301611943565b6119c390856000526020600020601f850160051c8101916020861061055157601f0160051c0190611e08565b3861119a565b60405162461bcd60e51b815260206004820152601960248201527f496d616765205552492063616e6e6f7420626520656d707479000000000000006044820152606490fd5b60405162461bcd60e51b81526020600482015260146024820152734e616d652063616e6e6f7420626520656d70747960601b6044820152606490fd5b60405162461bcd60e51b815260206004820152602260248201527f5175616e74697479206d7573742062652067726561746572207468616e207a65604482015261726f60f01b6064820152608490fd5b60405162461bcd60e51b815260206004820152601f60248201527f5072696365206d7573742062652067726561746572207468616e207a65726f006044820152606490fd5b8135815260209182019101610ff6565b3461098757602036600319011261098757600435806000526001602052611b1c6040600020541515611dbc565b6000526001602052602060018060a01b0360016040600020015416604051908152f35b346109875760203660031901126109875760043560005260026020526020604060002054604051908152f35b346109875760203660031901126109875760043560005260026020526040600020548015611b9e57602090604051908152f35b60405162461bcd60e51b815260206004820152602360248201527f4e4654206e6f74206173736f636961746564207769746820616e792070726f646044820152621d58dd60ea1b6064820152608490fd5b34610987576000366003190112610987576020906000548152f35b6101e081019081106001600160401b0382111761055b57604052565b90601f801991011681019081106001600160401b0382111761055b57604052565b81601f82011215610987578035906001600160401b03821161055b5760405192611c7b601f8401601f191660200185611c26565b8284526020838301011161098757816000926020809301838601378301015290565b90600182811c92168015611ccd575b6020831014611cb757565b634e487b7160e01b600052602260045260246000fd5b91607f1691611cac565b9060405191826000825492611ceb84611c9d565b8084529360018116908115611d595750600114611d12575b50611d1092500383611c26565b565b90506000929192526020600020906000915b818310611d3d575050906020611d109282010138611d03565b6020919350806001915483858901015201910190918492611d24565b905060209250611d1094915060ff191682840152151560051b82010138611d03565b919082519283825260005b848110611da7575050826000602080949584010152601f8019910116010190565b80602080928401015182828601015201611d86565b15611dc357565b60405162461bcd60e51b815260206004820152601760248201527f50726f6475637420646f6573206e6f742065786973742e0000000000000000006044820152606490fd5b818110611e13575050565b60008155600101611e08565b15611e2657565b60405162461bcd60e51b8152602060048201526016602482015275141c9bd91d58dd08191bd95cc81b9bdd08195e1a5cdd60521b6044820152606490fdfea2646970667358221220c38988ea4588a5b457e234e2eab6dcb66f153143d49d1b2c288957c1a5c737f164736f6c634300081b0033",
  "linkReferences": {},
  "deployedLinkReferences": {}
}